{
  "contractName": "TestingSupportCode",
  "abi": [
    {
      "constant": true,
      "inputs": [
        {
          "name": "",
          "type": "uint256"
        }
      ],
      "name": "kittieToOwner",
      "outputs": [
        {
          "name": "",
          "type": "address"
        }
      ],
      "payable": false,
      "stateMutability": "view",
      "type": "function"
    },
    {
      "constant": true,
      "inputs": [
        {
          "name": "",
          "type": "uint256"
        }
      ],
      "name": "kitties",
      "outputs": [
        {
          "name": "isGestating",
          "type": "bool"
        },
        {
          "name": "isReady",
          "type": "bool"
        },
        {
          "name": "cooldownIndex",
          "type": "uint256"
        },
        {
          "name": "nextActionAt",
          "type": "uint256"
        },
        {
          "name": "siringWithId",
          "type": "uint256"
        },
        {
          "name": "birthTime",
          "type": "uint256"
        },
        {
          "name": "matronId",
          "type": "uint256"
        },
        {
          "name": "sireId",
          "type": "uint256"
        },
        {
          "name": "generation",
          "type": "uint256"
        },
        {
          "name": "genes",
          "type": "uint256"
        }
      ],
      "payable": false,
      "stateMutability": "view",
      "type": "function"
    },
    {
      "anonymous": false,
      "inputs": [
        {
          "indexed": false,
          "name": "kittieToOwner",
          "type": "address"
        }
      ],
      "name": "KittieAddr",
      "type": "event"
    },
    {
      "constant": false,
      "inputs": [],
      "name": "createKittie",
      "outputs": [],
      "payable": false,
      "stateMutability": "nonpayable",
      "type": "function"
    },
    {
      "constant": true,
      "inputs": [
        {
          "name": "_id",
          "type": "uint256"
        }
      ],
      "name": "getKitty",
      "outputs": [
        {
          "name": "isGestating",
          "type": "bool"
        },
        {
          "name": "isReady",
          "type": "bool"
        },
        {
          "name": "cooldownIndex",
          "type": "uint256"
        },
        {
          "name": "nextActionAt",
          "type": "uint256"
        },
        {
          "name": "siringWithId",
          "type": "uint256"
        },
        {
          "name": "birthTime",
          "type": "uint256"
        },
        {
          "name": "matronId",
          "type": "uint256"
        },
        {
          "name": "sireId",
          "type": "uint256"
        },
        {
          "name": "generation",
          "type": "uint256"
        },
        {
          "name": "genes",
          "type": "uint256"
        }
      ],
      "payable": false,
      "stateMutability": "view",
      "type": "function"
    }
  ],
  "bytecode": "0x608060405234801561001057600080fd5b50610618806100206000396000f3fe6080604052600436106100615763ffffffff7c01000000000000000000000000000000000000000000000000000000006000350416638557b2c881146100665780638cc51eda146100b957806399baabea14610135578063e98b7f4d1461014c575b600080fd5b34801561007257600080fd5b506100906004803603602081101561008957600080fd5b5035610176565b6040805173ffffffffffffffffffffffffffffffffffffffff9092168252519081900360200190f35b3480156100c557600080fd5b506100e3600480360360208110156100dc57600080fd5b503561019e565b604080519a15158b5298151560208b0152898901979097526060890195909552608088019390935260a087019190915260c086015260e085015261010084015261012083015251908190036101400190f35b34801561014157600080fd5b5061014a610208565b005b34801561015857600080fd5b506100e36004803603602081101561016f57600080fd5b503561046b565b60016020526000908152604090205473ffffffffffffffffffffffffffffffffffffffff1681565b60008054829081106101ac57fe5b600091825260209091206009909102018054600182015460028301546003840154600485015460058601546006870154600788015460089098015460ff8089169a5061010090980490971697959694959394929391929091908a565b6040805161014081018252600180825260208083018281526005848601908152600760608601908152600960808701818152600b60a08901908152600d60c08a01908152600f60e08b019081526011610100808d0191825260156101208e0190815260008054808f0182558180529e51988f027f290decd9548b62a8d60345a988386fc84ba6bc95484008f6362f93160ef3e563810180549d51151590940261ff00199a151560ff199e909e169d909d17999099169b909b1790915597517f290decd9548b62a8d60345a988386fc84ba6bc95484008f6362f93160ef3e56487015595517f290decd9548b62a8d60345a988386fc84ba6bc95484008f6362f93160ef3e56586015592517f290decd9548b62a8d60345a988386fc84ba6bc95484008f6362f93160ef3e56685015590517f290decd9548b62a8d60345a988386fc84ba6bc95484008f6362f93160ef3e567840155517f290decd9548b62a8d60345a988386fc84ba6bc95484008f6362f93160ef3e568830155517f290decd9548b62a8d60345a988386fc84ba6bc95484008f6362f93160ef3e56982015590517f290decd9548b62a8d60345a988386fc84ba6bc95484008f6362f93160ef3e56a82015590517f290decd9548b62a8d60345a988386fc84ba6bc95484008f6362f93160ef3e56b9091015583815291815290839020805473ffffffffffffffffffffffffffffffffffffffff1916331790819055835173ffffffffffffffffffffffffffffffffffffffff919091168152925191927fe3e4af54b932ca741acf90e7d537fe26272376a7085502edf8c731218effe18f929081900390910190a150565b60008060008060008060008060008060008b81548110151561048957fe5b60009182526020822060099091020154815460ff9091169b508c9081106104ac57fe5b6000918252602082206009919091020154815461010090910460ff169a508c9081106104d457fe5b906000526020600020906009020160010154975060008b8154811015156104f757fe5b906000526020600020906009020160020154965060008b81548110151561051a57fe5b906000526020600020906009020160030154955060008b81548110151561053d57fe5b906000526020600020906009020160040154945060008b81548110151561056057fe5b906000526020600020906009020160050154935060008b81548110151561058357fe5b906000526020600020906009020160060154925060008b8154811015156105a657fe5b906000526020600020906009020160070154915060008b8154811015156105c957fe5b60009182526020909120600860099092020101549050919395979950919395979956fea165627a7a72305820e998b788ca8a17e2a053c7ff9b004ea79083ef734c62fc88da1b3315899089bc0029",
  "source": "pragma solidity >=0.4.0 <0.6.0;\r\n\r\n/// @title CryptoZombies Testing Support Code\r\n/// @author Rex Hygate \r\n// @Github https://github.com/SecurEth/CryptoZombiesT2/Lesson3\r\n// @SDD \"./doc./System Description Document.md\"\r\n// @ARCH ./doc/architecure.md\r\n\r\n//import \"./ownable.sol\";\r\n\r\ncontract TestingSupportCode {\r\n    \r\n    event KittieAddr(address kittieToOwner);\r\n\r\n    struct Kittie {\r\n        bool isGestating;\r\n        bool isReady;\r\n        uint256 cooldownIndex;\r\n        uint256 nextActionAt;\r\n        uint256 siringWithId;\r\n        uint256 birthTime;\r\n        uint256 matronId;\r\n        uint256 sireId;\r\n        uint256 generation;\r\n        uint256 genes;\r\n    }\r\n\r\n    Kittie[] public kitties;\r\n\r\n    mapping (uint => address) public kittieToOwner;\r\n\r\n    function createKittie () public {\r\n        uint kid = kitties.push(Kittie(\r\n            true, // isGestating\r\n            true, // isReady\r\n            5, // cooldownIndex\r\n            7, // nextActionAt\r\n            9, // siringWithId\r\n            11, // birthTime\r\n            13, // matronId\r\n            15, // sireId\r\n            17, // generation\r\n            21 // genes\r\n        )) - 1;\r\n        kittieToOwner[kid] = msg.sender;\r\n        emit KittieAddr(kittieToOwner[kid]);\r\n    }\r\n\r\n    function getKitty(uint256 _id) external view returns (\r\n        bool isGestating,\r\n        bool isReady,\r\n        uint256 cooldownIndex,\r\n        uint256 nextActionAt,\r\n        uint256 siringWithId,\r\n        uint256 birthTime,\r\n        uint256 matronId,\r\n        uint256 sireId,\r\n        uint256 generation,\r\n        uint256 genes)\r\n    {\r\n        isGestating = kitties[_id].isGestating;\r\n        isReady = kitties[_id].isReady;\r\n        cooldownIndex = kitties[_id].cooldownIndex;\r\n        nextActionAt = kitties[_id].nextActionAt;\r\n        siringWithId = kitties[_id].siringWithId;\r\n        birthTime = kitties[_id].birthTime;\r\n        matronId = kitties[_id].matronId;\r\n        sireId = kitties[_id].sireId;\r\n        generation = kitties[_id].generation;\r\n        genes = kitties[_id].genes;\r\n        return (\r\n            isGestating,\r\n            isReady,\r\n            cooldownIndex,\r\n            nextActionAt,\r\n            siringWithId,\r\n            birthTime,\r\n            matronId,\r\n            sireId,\r\n            generation,\r\n            genes       \r\n        );\r\n    }\r\n\r\n}",
  "sourcePath": "C:\\Users\\Eth Coding\\Documents\\Github\\CryptoZombiesT2\\Lesson2\\contracts\\testSupportCode.sol",
  "compiler": {
    "name": "solc",
    "version": "0.5.0+commit.1d4f565a.Emscripten.clang"
  },
  "schemaVersion": "3.0.6",
  "updatedAt": "2019-04-02T01:31:28.746Z",
  "devdoc": {
    "author": "Rex Hygate ",
    "methods": {}
  },
  "userdoc": {
    "methods": {}
  }
}