{
  "contractName": "ZombieFeeding",
  "abi": [
    {
      "constant": true,
      "inputs": [
        {
          "name": "",
          "type": "uint256"
        }
      ],
      "name": "zombies",
      "outputs": [
        {
          "name": "name",
          "type": "string"
        },
        {
          "name": "dna",
          "type": "uint256"
        }
      ],
      "payable": false,
      "stateMutability": "view",
      "type": "function"
    },
    {
      "constant": true,
      "inputs": [
        {
          "name": "",
          "type": "uint256"
        }
      ],
      "name": "zombieToOwner",
      "outputs": [
        {
          "name": "",
          "type": "address"
        }
      ],
      "payable": false,
      "stateMutability": "view",
      "type": "function"
    },
    {
      "constant": false,
      "inputs": [
        {
          "name": "_name",
          "type": "string"
        }
      ],
      "name": "createRandomZombie",
      "outputs": [],
      "payable": false,
      "stateMutability": "nonpayable",
      "type": "function"
    },
    {
      "constant": true,
      "inputs": [
        {
          "name": "",
          "type": "uint256"
        }
      ],
      "name": "kittieToOwner",
      "outputs": [
        {
          "name": "",
          "type": "address"
        }
      ],
      "payable": false,
      "stateMutability": "view",
      "type": "function"
    },
    {
      "constant": true,
      "inputs": [
        {
          "name": "",
          "type": "uint256"
        }
      ],
      "name": "kitties",
      "outputs": [
        {
          "name": "isGestating",
          "type": "bool"
        },
        {
          "name": "isReady",
          "type": "bool"
        },
        {
          "name": "cooldownIndex",
          "type": "uint256"
        },
        {
          "name": "nextActionAt",
          "type": "uint256"
        },
        {
          "name": "siringWithId",
          "type": "uint256"
        },
        {
          "name": "birthTime",
          "type": "uint256"
        },
        {
          "name": "matronId",
          "type": "uint256"
        },
        {
          "name": "sireId",
          "type": "uint256"
        },
        {
          "name": "generation",
          "type": "uint256"
        },
        {
          "name": "genes",
          "type": "uint256"
        }
      ],
      "payable": false,
      "stateMutability": "view",
      "type": "function"
    },
    {
      "constant": false,
      "inputs": [],
      "name": "createKittie",
      "outputs": [],
      "payable": false,
      "stateMutability": "nonpayable",
      "type": "function"
    },
    {
      "constant": true,
      "inputs": [
        {
          "name": "_id",
          "type": "uint256"
        }
      ],
      "name": "getKitty",
      "outputs": [
        {
          "name": "isGestating",
          "type": "bool"
        },
        {
          "name": "isReady",
          "type": "bool"
        },
        {
          "name": "cooldownIndex",
          "type": "uint256"
        },
        {
          "name": "nextActionAt",
          "type": "uint256"
        },
        {
          "name": "siringWithId",
          "type": "uint256"
        },
        {
          "name": "birthTime",
          "type": "uint256"
        },
        {
          "name": "matronId",
          "type": "uint256"
        },
        {
          "name": "sireId",
          "type": "uint256"
        },
        {
          "name": "generation",
          "type": "uint256"
        },
        {
          "name": "genes",
          "type": "uint256"
        }
      ],
      "payable": false,
      "stateMutability": "view",
      "type": "function"
    },
    {
      "anonymous": false,
      "inputs": [
        {
          "indexed": false,
          "name": "kitDna",
          "type": "uint256"
        }
      ],
      "name": "Kitdna2",
      "type": "event"
    },
    {
      "anonymous": false,
      "inputs": [
        {
          "indexed": false,
          "name": "zombieId",
          "type": "uint256"
        },
        {
          "indexed": false,
          "name": "name",
          "type": "string"
        },
        {
          "indexed": false,
          "name": "dna",
          "type": "uint256"
        },
        {
          "indexed": false,
          "name": "zombieToOwner",
          "type": "address"
        },
        {
          "indexed": false,
          "name": "ownerZombieCount",
          "type": "uint256"
        }
      ],
      "name": "NewZombie",
      "type": "event"
    },
    {
      "anonymous": false,
      "inputs": [
        {
          "indexed": false,
          "name": "kittieToOwner",
          "type": "address"
        }
      ],
      "name": "KittieAddr",
      "type": "event"
    },
    {
      "constant": false,
      "inputs": [
        {
          "name": "_zombieId",
          "type": "uint256"
        },
        {
          "name": "_targetDna",
          "type": "uint256"
        },
        {
          "name": "_species",
          "type": "string"
        }
      ],
      "name": "feedAndMultiply",
      "outputs": [],
      "payable": false,
      "stateMutability": "nonpayable",
      "type": "function"
    },
    {
      "constant": false,
      "inputs": [
        {
          "name": "_zombieId",
          "type": "uint256"
        },
        {
          "name": "_kittyId",
          "type": "uint256"
        }
      ],
      "name": "feedOnKitty",
      "outputs": [],
      "payable": false,
      "stateMutability": "nonpayable",
      "type": "function"
    }
  ],
  "bytecode": "0x60806040526010600255662386f26fc100006003556001600455600f60055560098054600160a060020a0319908116730cef4411b29262300347072c24f2a53612f886331791829055600a8054909116600160a060020a039290921691909117905534801561006d57600080fd5b50610fd78061007d6000396000f3fe6080604052600436106100985763ffffffff7c010000000000000000000000000000000000000000000000000000000060003504166317a7f4cc811461009d5780632052465e146100cf578063528b7b8f146101785780636b0bfc80146101cb5780637bff0a011461028a5780638557b2c81461033d5780638cc51eda1461036757806399baabea146103e3578063e98b7f4d146103f8575b600080fd5b3480156100a957600080fd5b506100cd600480360360408110156100c057600080fd5b5080359060200135610422565b005b3480156100db57600080fd5b506100f9600480360360208110156100f257600080fd5b5035610473565b6040518080602001838152602001828103825284818151815260200191508051906020019080838360005b8381101561013c578181015183820152602001610124565b50505050905090810190601f1680156101695780820380516001836020036101000a031916815260200191505b50935050505060405180910390f35b34801561018457600080fd5b506101a26004803603602081101561019b57600080fd5b5035610527565b6040805173ffffffffffffffffffffffffffffffffffffffff9092168252519081900360200190f35b3480156101d757600080fd5b506100cd600480360360608110156101ee57600080fd5b81359160208101359181019060608101604082013564010000000081111561021557600080fd5b82018360208201111561022757600080fd5b8035906020019184600183028401116401000000008311171561024957600080fd5b91908080601f01602080910402602001604051908101604052809392919081815260200183838082843760009201919091525092955061054f945050505050565b34801561029657600080fd5b506100cd600480360360208110156102ad57600080fd5b8101906020810181356401000000008111156102c857600080fd5b8201836020820111156102da57600080fd5b803590602001918460018302840111640100000000831117156102fc57600080fd5b91908080601f016020809104026020016040519081016040528093929190818152602001838380828437600092019190915250929550610737945050505050565b34801561034957600080fd5b506101a26004803603602081101561036057600080fd5b50356107f4565b34801561037357600080fd5b506103916004803603602081101561038a57600080fd5b503561081c565b604080519a15158b5298151560208b0152898901979097526060890195909552608088019390935260a087019190915260c086015260e085015261010084015261012083015251908190036101400190f35b3480156103ef57600080fd5b506100cd610886565b34801561040457600080fd5b506103916004803603602081101561041b57600080fd5b5035610ae9565b60408051808201909152600581527f6b697474790000000000000000000000000000000000000000000000000000006020820152625f16e790600183019061046d908590849061054f565b50505050565b600680548290811061048157fe5b60009182526020918290206002918202018054604080516001831615610100026000190190921693909304601f8101859004850282018501909352828152909350918391908301828280156105175780601f106104ec57610100808354040283529160200191610517565b820191906000526020600020905b8154815290600101906020018083116104fa57829003601f168201915b5050505050908060010154905082565b60076020526000908152604090205473ffffffffffffffffffffffffffffffffffffffff1681565b60008381526007602052604090205473ffffffffffffffffffffffffffffffffffffffff1633146105e157604080517f08c379a000000000000000000000000000000000000000000000000000000000815260206004820152601760248201527f5a6f6d626965206e6f74206f776e656420627920796f75000000000000000000604482015290519081900360640190fd5b60006006848154811015156105f257fe5b9060005260206000209060020201905060006003548481151561061157fe5b069050600060028284600101540181151561062857fe5b04905060405160200180807f6b69747479000000000000000000000000000000000000000000000000000000815250600501905060405160208183030381529060405280519060200120846040516020018082805190602001908083835b602083106106a55780518252601f199092019160209182019101610686565b6001836020036101000a0380198251168184511680821785525050505050509050019150506040516020818303038152906040528051906020012014156106f0576064810690036063015b61072f6040805190810160405280600681526020017f4e6f4e616d65000000000000000000000000000000000000000000000000000081525082610c6a565b505050505050565b33600090815260086020526040902054156107d957604080517f08c379a000000000000000000000000000000000000000000000000000000000815260206004820152602360248201527f4f6e6c7920776f726b73207768656e20796f752068617665206e6f205a6f6d6260448201527f6965730000000000000000000000000000000000000000000000000000000000606482015290519081900360840190fd5b60006107e482610dff565b90506107f08282610c6a565b5050565b60016020526000908152604090205473ffffffffffffffffffffffffffffffffffffffff1681565b600080548290811061082a57fe5b600091825260209091206009909102018054600182015460028301546003840154600485015460058601546006870154600788015460089098015460ff8089169a5061010090980490971697959694959394929391929091908a565b6040805161014081018252600180825260208083018281526005848601908152600760608601908152600960808701818152600b60a08901908152600d60c08a01908152600f60e08b019081526011610100808d0191825260156101208e0190815260008054808f0182558180529e51988f027f290decd9548b62a8d60345a988386fc84ba6bc95484008f6362f93160ef3e563810180549d51151590940261ff00199a151560ff199e909e169d909d17999099169b909b1790915597517f290decd9548b62a8d60345a988386fc84ba6bc95484008f6362f93160ef3e56487015595517f290decd9548b62a8d60345a988386fc84ba6bc95484008f6362f93160ef3e56586015592517f290decd9548b62a8d60345a988386fc84ba6bc95484008f6362f93160ef3e56685015590517f290decd9548b62a8d60345a988386fc84ba6bc95484008f6362f93160ef3e567840155517f290decd9548b62a8d60345a988386fc84ba6bc95484008f6362f93160ef3e568830155517f290decd9548b62a8d60345a988386fc84ba6bc95484008f6362f93160ef3e56982015590517f290decd9548b62a8d60345a988386fc84ba6bc95484008f6362f93160ef3e56a82015590517f290decd9548b62a8d60345a988386fc84ba6bc95484008f6362f93160ef3e56b9091015583815291815290839020805473ffffffffffffffffffffffffffffffffffffffff1916331790819055835173ffffffffffffffffffffffffffffffffffffffff919091168152925191927fe3e4af54b932ca741acf90e7d537fe26272376a7085502edf8c731218effe18f929081900390910190a150565b60008060008060008060008060008060008b815481101515610b0757fe5b60009182526020822060099091020154815460ff9091169b508c908110610b2a57fe5b6000918252602082206009919091020154815461010090910460ff169a508c908110610b5257fe5b906000526020600020906009020160010154975060008b815481101515610b7557fe5b906000526020600020906009020160020154965060008b815481101515610b9857fe5b906000526020600020906009020160030154955060008b815481101515610bbb57fe5b906000526020600020906009020160040154945060008b815481101515610bde57fe5b906000526020600020906009020160050154935060008b815481101515610c0157fe5b906000526020600020906009020160060154925060008b815481101515610c2457fe5b906000526020600020906009020160070154915060008b815481101515610c4757fe5b600091825260209091206008600990920201015490509193959799509193959799565b60408051808201909152828152602080820183905260068054600181810180845560009384528551805194969295919492936002027ff652222313e28459528d920b65115c16c04f3efc82aaedc97be59f3f377c0d3f0192610ccf9284920190610f10565b50602091820151600191820155929091036000818152600783526040808220805473ffffffffffffffffffffffffffffffffffffffff191633908117825583526008855281832080549096019586905554815184815291820188905273ffffffffffffffffffffffffffffffffffffffff16606082018190526080820186905260a08286018181528a519184019190915289519497507f9dfb8159c8f41d296587ad1c564820650440f2cb3a7f0c2b6443058dc6af4f089688968b968b969495929492939260c0850192890191908190849084905b83811015610dbc578181015183820152602001610da4565b50505050905090810190601f168015610de95780820380516001836020036101000a031916815260200191505b50965050505050505060405180910390a1505050565b80516004546000919081118015610e17575060055481105b1515610e8457604080517f08c379a000000000000000000000000000000000000000000000000000000000815260206004820152600f60248201527f4e616d6520626164206c656e6774680000000000000000000000000000000000604482015290519081900360640190fd5b6000836040516020018082805190602001908083835b60208310610eb95780518252601f199092019160209182019101610e9a565b6001836020036101000a0380198251168184511680821785525050505050509050019150506040516020818303038152906040528051906020012060019004905060035481811515610f0757fe5b06949350505050565b828054600181600116156101000203166002900490600052602060002090601f016020900481019282601f10610f5157805160ff1916838001178555610f7e565b82800160010185558215610f7e579182015b82811115610f7e578251825591602001919060010190610f63565b50610f8a929150610f8e565b5090565b610fa891905b80821115610f8a5760008155600101610f94565b9056fea165627a7a72305820430555256e485790771cdbbe9411cf6d0247badb1e5eac825dc36075129fb0ff0029",
  "source": "pragma solidity >=0.4.0 <0.6.0;\r\n\r\n/// @title CryptoZombies Chapter 2\r\n/// @author H4XF13LD MORRIS 💯💯😎💯💯 (documentation by Rex Hygate)\r\n// @Github https://github.com/SecurEth/CryptoZombiesT1/Chapter2\r\n// @SDD \"./doc./System Description Document.md\"\r\n// @ARCH ./doc/Crpto...\r\n\r\nimport \"./zombiefactory.sol\";\r\n\r\ncontract KittyInterface {\r\n    function getKitty(uint256 _id) external view returns (\r\n        bool isGestating,\r\n        bool isReady,\r\n        uint256 cooldownIndex,\r\n        uint256 nextActionAt,\r\n        uint256 siringWithId,\r\n        uint256 birthTime,\r\n        uint256 matronId,\r\n        uint256 sireId,\r\n        uint256 generation,\r\n        uint256 genes);\r\n} \r\n\r\ncontract ZombieFeeding is ZombieFactory {\r\n\r\n    event Kitdna2(uint kitDna);\r\n\r\n    // Fixed address of one particular kitty for now\r\n    address ckAddress = 0x0ceF4411B29262300347072c24F2A53612F88633;\r\n    KittyInterface kittyContract = KittyInterface(ckAddress);\r\n\r\n    // req ZFE_1 Ensure only the owner can execute the function\r\n    // req ZFE_2 Mix the dna of the feeding zombie and the targetted kitty to a new dna\r\n    // req ZFE_3 If the species variable is \"kitty\" put a 99 at the end of the dna\r\n    // req ZFE_4 create a new zombie, called \"Noname\" with the resulting new dna\r\n    function feedAndMultiply(uint _zombieId, uint _targetDna, string memory _species) public {\r\n        require(msg.sender == zombieToOwner[_zombieId], \"Zombie not owned by you\");\r\n        Zombie storage myZombie = zombies[_zombieId];\r\n        uint mod_targetDna = _targetDna % dnaModulus;\r\n        uint newDna = (myZombie.dna + mod_targetDna) / 2;\r\n        if (keccak256(abi.encodePacked(_species)) == keccak256(abi.encodePacked(\"kitty\"))) {\r\n            newDna = newDna - newDna % 100 + 99;\r\n        }\r\n        _createZombie(\"NoName\", newDna);\r\n    }\r\n\r\n    // req ZFE_5 Have one zombie feed on the specified kitty and create a new zombie of species kitty\r\n    function feedOnKitty(uint _zombieId, uint _kittyId) public {\r\n        uint kittyDna = 5;\r\n//        (,,,,,,,,,kittyDna) = kittyContract.getKitty(_kittyId);\r\n//         Removed because it cannot be tested.  Replace before deployment\r\n        kittyDna = 6231783;     // Delete before deployment\r\n        uint dummy = _kittyId;  // Delete before deployment\r\n        dummy++;                // Delete before deployment \r\n        feedAndMultiply(_zombieId, kittyDna, \"kitty\");\r\n    }\r\n\r\n}\r\n",
  "sourcePath": "C:/Users/Eth Coding/Documents/Github/CryptoZombiesT2/Lesson2/contracts/ZombieFeeding.sol",
  "compiler": {
    "name": "solc",
    "version": "0.5.0+commit.1d4f565a.Emscripten.clang"
  },
  "schemaVersion": "3.0.6",
  "updatedAt": "2019-04-22T14:41:46.117Z",
  "devdoc": {
    "methods": {}
  },
  "userdoc": {
    "methods": {}
  }
}