{
  "contractName": "ZombieFeeding",
  "abi": [
    {
      "constant": true,
      "inputs": [
        {
          "name": "",
          "type": "uint256"
        }
      ],
      "name": "zombies",
      "outputs": [
        {
          "name": "name",
          "type": "string"
        },
        {
          "name": "dna",
          "type": "uint256"
        }
      ],
      "payable": false,
      "stateMutability": "view",
      "type": "function"
    },
    {
      "constant": true,
      "inputs": [
        {
          "name": "",
          "type": "uint256"
        }
      ],
      "name": "zombieToOwner",
      "outputs": [
        {
          "name": "",
          "type": "address"
        }
      ],
      "payable": false,
      "stateMutability": "view",
      "type": "function"
    },
    {
      "constant": false,
      "inputs": [
        {
          "name": "_name",
          "type": "string"
        }
      ],
      "name": "createRandomZombie",
      "outputs": [],
      "payable": false,
      "stateMutability": "nonpayable",
      "type": "function"
    },
    {
      "anonymous": false,
      "inputs": [
        {
          "indexed": false,
          "name": "zombieId",
          "type": "uint256"
        },
        {
          "indexed": false,
          "name": "name",
          "type": "string"
        },
        {
          "indexed": false,
          "name": "dna",
          "type": "uint256"
        },
        {
          "indexed": false,
          "name": "zombieToOwner",
          "type": "address"
        },
        {
          "indexed": false,
          "name": "ownerZombieCount",
          "type": "uint256"
        }
      ],
      "name": "NewZombie",
      "type": "event"
    },
    {
      "constant": false,
      "inputs": [
        {
          "name": "_zombieId",
          "type": "uint256"
        },
        {
          "name": "_targetDna",
          "type": "uint256"
        },
        {
          "name": "_species",
          "type": "string"
        }
      ],
      "name": "feedAndMultiply",
      "outputs": [],
      "payable": false,
      "stateMutability": "nonpayable",
      "type": "function"
    },
    {
      "constant": false,
      "inputs": [
        {
          "name": "_zombieId",
          "type": "uint256"
        },
        {
          "name": "_kittyId",
          "type": "uint256"
        }
      ],
      "name": "feedOnKitty",
      "outputs": [],
      "payable": false,
      "stateMutability": "nonpayable",
      "type": "function"
    }
  ],
  "bytecode": "0x60806040526010600055662386f26fc100006001908155600255600f60035560078054600160a060020a03199081167306012c8cf97bead5deae237070f9587f8e7a266d179182905560088054909116600160a060020a039290921691909117905534801561006d57600080fd5b50610a508061007d6000396000f3fe60806040526004361061006c5763ffffffff7c010000000000000000000000000000000000000000000000000000000060003504166317a7f4cc81146100715780632052465e146100a3578063528b7b8f1461014c5780636b0bfc801461019f5780637bff0a011461025e575b600080fd5b34801561007d57600080fd5b506100a16004803603604081101561009457600080fd5b5080359060200135610311565b005b3480156100af57600080fd5b506100cd600480360360208110156100c657600080fd5b5035610362565b6040518080602001838152602001828103825284818151815260200191508051906020019080838360005b838110156101105781810151838201526020016100f8565b50505050905090810190601f16801561013d5780820380516001836020036101000a031916815260200191505b50935050505060405180910390f35b34801561015857600080fd5b506101766004803603602081101561016f57600080fd5b5035610416565b6040805173ffffffffffffffffffffffffffffffffffffffff9092168252519081900360200190f35b3480156101ab57600080fd5b506100a1600480360360608110156101c257600080fd5b8135916020810135918101906060810160408201356401000000008111156101e957600080fd5b8201836020820111156101fb57600080fd5b8035906020019184600183028401116401000000008311171561021d57600080fd5b91908080601f01602080910402602001604051908101604052809392919081815260200183838082843760009201919091525092955061043e945050505050565b34801561026a57600080fd5b506100a16004803603602081101561028157600080fd5b81019060208101813564010000000081111561029c57600080fd5b8201836020820111156102ae57600080fd5b803590602001918460018302840111640100000000831117156102d057600080fd5b91908080601f016020809104026020016040519081016040528093929190818152602001838380828437600092019190915250929550610626945050505050565b60408051808201909152600581527f6b697474790000000000000000000000000000000000000000000000000000006020820152625f16e790600183019061035c908590849061043e565b50505050565b600480548290811061037057fe5b60009182526020918290206002918202018054604080516001831615610100026000190190921693909304601f8101859004850282018501909352828152909350918391908301828280156104065780601f106103db57610100808354040283529160200191610406565b820191906000526020600020905b8154815290600101906020018083116103e957829003601f168201915b5050505050908060010154905082565b60056020526000908152604090205473ffffffffffffffffffffffffffffffffffffffff1681565b60008381526005602052604090205473ffffffffffffffffffffffffffffffffffffffff1633146104d057604080517f08c379a000000000000000000000000000000000000000000000000000000000815260206004820152601760248201527f5a6f6d626965206e6f74206f776e656420627920796f75000000000000000000604482015290519081900360640190fd5b60006004848154811015156104e157fe5b9060005260206000209060020201905060006001548481151561050057fe5b069050600060028284600101540181151561051757fe5b04905060405160200180807f6b69747479000000000000000000000000000000000000000000000000000000815250600501905060405160208183030381529060405280519060200120846040516020018082805190602001908083835b602083106105945780518252601f199092019160209182019101610575565b6001836020036101000a0380198251168184511680821785525050505050509050019150506040516020818303038152906040528051906020012014156105df576064810690036063015b61061e6040805190810160405280600681526020017f4e6f4e616d650000000000000000000000000000000000000000000000000000815250826106e3565b505050505050565b33600090815260066020526040902054156106c857604080517f08c379a000000000000000000000000000000000000000000000000000000000815260206004820152602360248201527f4f6e6c7920776f726b73207768656e20796f752068617665206e6f205a6f6d6260448201527f6965730000000000000000000000000000000000000000000000000000000000606482015290519081900360840190fd5b60006106d382610878565b90506106df82826106e3565b5050565b60408051808201909152828152602080820183905260048054600181810180845560009384528551805194969295919492936002027f8a35acfbc15ff81a39ae7d344fd709f28e8600b4aa8c65c6b64bfe7fe36bd19b01926107489284920190610989565b50602091820151600191820155929091036000818152600583526040808220805473ffffffffffffffffffffffffffffffffffffffff191633908117825583526006855281832080549096019586905554815184815291820188905273ffffffffffffffffffffffffffffffffffffffff16606082018190526080820186905260a08286018181528a519184019190915289519497507f9dfb8159c8f41d296587ad1c564820650440f2cb3a7f0c2b6443058dc6af4f089688968b968b969495929492939260c0850192890191908190849084905b8381101561083557818101518382015260200161081d565b50505050905090810190601f1680156108625780820380516001836020036101000a031916815260200191505b50965050505050505060405180910390a1505050565b80516002546000919081118015610890575060035481105b15156108fd57604080517f08c379a000000000000000000000000000000000000000000000000000000000815260206004820152600f60248201527f4e616d6520626164206c656e6774680000000000000000000000000000000000604482015290519081900360640190fd5b6000836040516020018082805190602001908083835b602083106109325780518252601f199092019160209182019101610913565b6001836020036101000a038019825116818451168082178552505050505050905001915050604051602081830303815290604052805190602001206001900490506001548181151561098057fe5b06949350505050565b828054600181600116156101000203166002900490600052602060002090601f016020900481019282601f106109ca57805160ff19168380011785556109f7565b828001600101855582156109f7579182015b828111156109f75782518255916020019190600101906109dc565b50610a03929150610a07565b5090565b610a2191905b80821115610a035760008155600101610a0d565b9056fea165627a7a723058203ab1afb6be8d7cb34d15913946608db865f8c0896772afb4a75017e3cf58edad0029",
  "source": "pragma solidity >=0.4.0 <0.6.0;\r\n\r\n/// @title CryptoZombies Chapter 2\r\n/// @author H4XF13LD MORRIS 💯💯😎💯💯 (documentation by Rex Hygate)\r\n// @Github https://github.com/SecurEth/CryptoZombiesT1/Chapter2\r\n// @SDD \"./doc./System Description Document.md\"\r\n// @ARCH ./doc/Crpto...\r\n\r\nimport \"./zombiefactory.sol\";\r\n\r\ncontract KittyInterface {\r\n    function getKitty(uint256 _id) external view returns (\r\n        bool isGestating,\r\n        bool isReady,\r\n        uint256 cooldownIndex,\r\n        uint256 nextActionAt,\r\n        uint256 siringWithId,\r\n        uint256 birthTime,\r\n        uint256 matronId,\r\n        uint256 sireId,\r\n        uint256 generation,\r\n        uint256 genes);\r\n}\r\n\r\ncontract ZombieFeeding is ZombieFactory {\r\n\r\n    // Fixed address of one particular kitty for now\r\n    address ckAddress = 0x06012c8cf97BEaD5deAe237070F9587f8E7A266d;\r\n    KittyInterface kittyContract = KittyInterface(ckAddress);\r\n\r\n    // req ZFE_2 Mix the dna of the feeding zombie and the targetted kitty to a new dna\r\n    // req ZFE_3 If the species variable is \"kitty\" put a 99 at the end of the dna\r\n    // req ZFE_4 create a new zombie, called \"Noname\" with the resulting new dna\r\n    // req ZFE_1 Ensure only the owner can execute the function\r\n    function feedAndMultiply(uint _zombieId, uint _targetDna, string memory _species) public {\r\n        require(msg.sender == zombieToOwner[_zombieId], \"Zombie not owned by you\");\r\n        Zombie storage myZombie = zombies[_zombieId];\r\n        uint mod_targetDna = _targetDna % dnaModulus;\r\n        uint newDna = (myZombie.dna + mod_targetDna) / 2;\r\n        if (keccak256(abi.encodePacked(_species)) == keccak256(abi.encodePacked(\"kitty\"))) {\r\n            newDna = newDna - newDna % 100 + 99;\r\n        }\r\n        _createZombie(\"NoName\", newDna);\r\n    }\r\n\r\n    // req ZFE_5 Have one zombie feed on the specified kitty and create a new zombie of species kitty\r\n    function feedOnKitty(uint _zombieId, uint _kittyId) public {\r\n        uint kittyDna;\r\n//        (,,,,,,,,,kittyDna) = kittyContract.getKitty(_kittyId);\r\n//         Removed because it cannot be tested.  Replace before deployment\r\n        kittyDna = 6231783;     // Delete before deployment\r\n        uint dummy = _kittyId;  // Delete before deployment\r\n        dummy++;                // Delete before deployment\r\n        feedAndMultiply(_zombieId, kittyDna, \"kitty\");\r\n    }\r\n\r\n}\r\n",
  "sourcePath": "C:/Users/Eth Coding/Documents/Github/CryptoZombiesT2/Lesson2/contracts/ZombieFeeding.sol",
  "compiler": {
    "name": "solc",
    "version": "0.5.0+commit.1d4f565a.Emscripten.clang"
  },
  "schemaVersion": "3.0.6",
  "updatedAt": "2019-03-31T19:20:34.209Z",
  "devdoc": {
    "methods": {}
  },
  "userdoc": {
    "methods": {}
  }
}