{
  "contractName": "ZombieFactory",
  "abi": [
    {
      "constant": true,
      "inputs": [
        {
          "name": "",
          "type": "uint256"
        }
      ],
      "name": "zombies",
      "outputs": [
        {
          "name": "name",
          "type": "string"
        },
        {
          "name": "dna",
          "type": "uint256"
        }
      ],
      "payable": false,
      "stateMutability": "view",
      "type": "function"
    },
    {
      "constant": true,
      "inputs": [
        {
          "name": "",
          "type": "uint256"
        }
      ],
      "name": "zombieToOwner",
      "outputs": [
        {
          "name": "",
          "type": "address"
        }
      ],
      "payable": false,
      "stateMutability": "view",
      "type": "function"
    },
    {
      "constant": true,
      "inputs": [
        {
          "name": "",
          "type": "uint256"
        }
      ],
      "name": "kittieToOwner",
      "outputs": [
        {
          "name": "",
          "type": "address"
        }
      ],
      "payable": false,
      "stateMutability": "view",
      "type": "function"
    },
    {
      "constant": true,
      "inputs": [
        {
          "name": "",
          "type": "uint256"
        }
      ],
      "name": "kitties",
      "outputs": [
        {
          "name": "isGestating",
          "type": "bool"
        },
        {
          "name": "isReady",
          "type": "bool"
        },
        {
          "name": "cooldownIndex",
          "type": "uint256"
        },
        {
          "name": "nextActionAt",
          "type": "uint256"
        },
        {
          "name": "siringWithId",
          "type": "uint256"
        },
        {
          "name": "birthTime",
          "type": "uint256"
        },
        {
          "name": "matronId",
          "type": "uint256"
        },
        {
          "name": "sireId",
          "type": "uint256"
        },
        {
          "name": "generation",
          "type": "uint256"
        },
        {
          "name": "genes",
          "type": "uint256"
        }
      ],
      "payable": false,
      "stateMutability": "view",
      "type": "function"
    },
    {
      "constant": false,
      "inputs": [],
      "name": "createKittie",
      "outputs": [],
      "payable": false,
      "stateMutability": "nonpayable",
      "type": "function"
    },
    {
      "constant": true,
      "inputs": [
        {
          "name": "_id",
          "type": "uint256"
        }
      ],
      "name": "getKitty",
      "outputs": [
        {
          "name": "isGestating",
          "type": "bool"
        },
        {
          "name": "isReady",
          "type": "bool"
        },
        {
          "name": "cooldownIndex",
          "type": "uint256"
        },
        {
          "name": "nextActionAt",
          "type": "uint256"
        },
        {
          "name": "siringWithId",
          "type": "uint256"
        },
        {
          "name": "birthTime",
          "type": "uint256"
        },
        {
          "name": "matronId",
          "type": "uint256"
        },
        {
          "name": "sireId",
          "type": "uint256"
        },
        {
          "name": "generation",
          "type": "uint256"
        },
        {
          "name": "genes",
          "type": "uint256"
        }
      ],
      "payable": false,
      "stateMutability": "view",
      "type": "function"
    },
    {
      "anonymous": false,
      "inputs": [
        {
          "indexed": false,
          "name": "zombieId",
          "type": "uint256"
        },
        {
          "indexed": false,
          "name": "name",
          "type": "string"
        },
        {
          "indexed": false,
          "name": "dna",
          "type": "uint256"
        },
        {
          "indexed": false,
          "name": "zombieToOwner",
          "type": "address"
        },
        {
          "indexed": false,
          "name": "ownerZombieCount",
          "type": "uint256"
        }
      ],
      "name": "NewZombie",
      "type": "event"
    },
    {
      "anonymous": false,
      "inputs": [
        {
          "indexed": false,
          "name": "kittieToOwner",
          "type": "address"
        }
      ],
      "name": "KittieAddr",
      "type": "event"
    },
    {
      "constant": false,
      "inputs": [
        {
          "name": "_name",
          "type": "string"
        }
      ],
      "name": "createRandomZombie",
      "outputs": [],
      "payable": false,
      "stateMutability": "nonpayable",
      "type": "function"
    }
  ],
  "bytecode": "0x60806040526010600255662386f26fc100006003556001600455600f60055534801561002a57600080fd5b50610c998061003a6000396000f3fe6080604052600436106100825763ffffffff7c01000000000000000000000000000000000000000000000000000000006000350416632052465e8114610087578063528b7b8f146101305780637bff0a01146101835780638557b2c8146102385780638cc51eda1461026257806399baabea146102de578063e98b7f4d146102f3575b600080fd5b34801561009357600080fd5b506100b1600480360360208110156100aa57600080fd5b503561031d565b6040518080602001838152602001828103825284818151815260200191508051906020019080838360005b838110156100f45781810151838201526020016100dc565b50505050905090810190601f1680156101215780820380516001836020036101000a031916815260200191505b50935050505060405180910390f35b34801561013c57600080fd5b5061015a6004803603602081101561015357600080fd5b50356103d1565b6040805173ffffffffffffffffffffffffffffffffffffffff9092168252519081900360200190f35b34801561018f57600080fd5b50610236600480360360208110156101a657600080fd5b8101906020810181356401000000008111156101c157600080fd5b8201836020820111156101d357600080fd5b803590602001918460018302840111640100000000831117156101f557600080fd5b91908080601f0160208091040260200160405190810160405280939291908181526020018383808284376000920191909152509295506103f9945050505050565b005b34801561024457600080fd5b5061015a6004803603602081101561025b57600080fd5b50356104b6565b34801561026e57600080fd5b5061028c6004803603602081101561028557600080fd5b50356104de565b604080519a15158b5298151560208b0152898901979097526060890195909552608088019390935260a087019190915260c086015260e085015261010084015261012083015251908190036101400190f35b3480156102ea57600080fd5b50610236610548565b3480156102ff57600080fd5b5061028c6004803603602081101561031657600080fd5b50356107ab565b600680548290811061032b57fe5b60009182526020918290206002918202018054604080516001831615610100026000190190921693909304601f8101859004850282018501909352828152909350918391908301828280156103c15780601f10610396576101008083540402835291602001916103c1565b820191906000526020600020905b8154815290600101906020018083116103a457829003601f168201915b5050505050908060010154905082565b60076020526000908152604090205473ffffffffffffffffffffffffffffffffffffffff1681565b336000908152600860205260409020541561049b57604080517f08c379a000000000000000000000000000000000000000000000000000000000815260206004820152602360248201527f4f6e6c7920776f726b73207768656e20796f752068617665206e6f205a6f6d6260448201527f6965730000000000000000000000000000000000000000000000000000000000606482015290519081900360840190fd5b60006104a68261092c565b90506104b28282610a3d565b5050565b60016020526000908152604090205473ffffffffffffffffffffffffffffffffffffffff1681565b60008054829081106104ec57fe5b600091825260209091206009909102018054600182015460028301546003840154600485015460058601546006870154600788015460089098015460ff8089169a5061010090980490971697959694959394929391929091908a565b6040805161014081018252600180825260208083018281526005848601908152600760608601908152600960808701818152600b60a08901908152600d60c08a01908152600f60e08b019081526011610100808d0191825260156101208e0190815260008054808f0182558180529e51988f027f290decd9548b62a8d60345a988386fc84ba6bc95484008f6362f93160ef3e563810180549d51151590940261ff00199a151560ff199e909e169d909d17999099169b909b1790915597517f290decd9548b62a8d60345a988386fc84ba6bc95484008f6362f93160ef3e56487015595517f290decd9548b62a8d60345a988386fc84ba6bc95484008f6362f93160ef3e56586015592517f290decd9548b62a8d60345a988386fc84ba6bc95484008f6362f93160ef3e56685015590517f290decd9548b62a8d60345a988386fc84ba6bc95484008f6362f93160ef3e567840155517f290decd9548b62a8d60345a988386fc84ba6bc95484008f6362f93160ef3e568830155517f290decd9548b62a8d60345a988386fc84ba6bc95484008f6362f93160ef3e56982015590517f290decd9548b62a8d60345a988386fc84ba6bc95484008f6362f93160ef3e56a82015590517f290decd9548b62a8d60345a988386fc84ba6bc95484008f6362f93160ef3e56b9091015583815291815290839020805473ffffffffffffffffffffffffffffffffffffffff1916331790819055835173ffffffffffffffffffffffffffffffffffffffff919091168152925191927fe3e4af54b932ca741acf90e7d537fe26272376a7085502edf8c731218effe18f929081900390910190a150565b60008060008060008060008060008060008b8154811015156107c957fe5b60009182526020822060099091020154815460ff9091169b508c9081106107ec57fe5b6000918252602082206009919091020154815461010090910460ff169a508c90811061081457fe5b906000526020600020906009020160010154975060008b81548110151561083757fe5b906000526020600020906009020160020154965060008b81548110151561085a57fe5b906000526020600020906009020160030154955060008b81548110151561087d57fe5b906000526020600020906009020160040154945060008b8154811015156108a057fe5b906000526020600020906009020160050154935060008b8154811015156108c357fe5b906000526020600020906009020160060154925060008b8154811015156108e657fe5b906000526020600020906009020160070154915060008b81548110151561090957fe5b600091825260209091206008600990920201015490509193959799509193959799565b80516004546000919081118015610944575060055481105b15156109b157604080517f08c379a000000000000000000000000000000000000000000000000000000000815260206004820152600f60248201527f4e616d6520626164206c656e6774680000000000000000000000000000000000604482015290519081900360640190fd5b6000836040516020018082805190602001908083835b602083106109e65780518252601f1990920191602091820191016109c7565b6001836020036101000a0380198251168184511680821785525050505050509050019150506040516020818303038152906040528051906020012060019004905060035481811515610a3457fe5b06949350505050565b60408051808201909152828152602080820183905260068054600181810180845560009384528551805194969295919492936002027ff652222313e28459528d920b65115c16c04f3efc82aaedc97be59f3f377c0d3f0192610aa29284920190610bd2565b50602091820151600191820155929091036000818152600783526040808220805473ffffffffffffffffffffffffffffffffffffffff191633908117825583526008855281832080549096019586905554815184815291820188905273ffffffffffffffffffffffffffffffffffffffff16606082018190526080820186905260a08286018181528a519184019190915289519497507f9dfb8159c8f41d296587ad1c564820650440f2cb3a7f0c2b6443058dc6af4f089688968b968b969495929492939260c0850192890191908190849084905b83811015610b8f578181015183820152602001610b77565b50505050905090810190601f168015610bbc5780820380516001836020036101000a031916815260200191505b50965050505050505060405180910390a1505050565b828054600181600116156101000203166002900490600052602060002090601f016020900481019282601f10610c1357805160ff1916838001178555610c40565b82800160010185558215610c40579182015b82811115610c40578251825591602001919060010190610c25565b50610c4c929150610c50565b5090565b610c6a91905b80821115610c4c5760008155600101610c56565b9056fea165627a7a72305820434e8bc833a6706efe985c7632ca7f34e849602c775015355e088f673b6002540029",
  "source": "pragma solidity >=0.4.0 <0.6.0;\r\n\r\n/// @title CryptoZombies Lesson 2\r\n/// @author H4XF13LD MORRIS 💯💯😎💯💯 (documentation by Rex Hygate)\r\n// @Github https://github.com/SecurEth/CryptoZombiesT2/Lesson2\r\n// @SDD \"./doc./System Description Document.md\"\r\n// @ARCH ./doc/architecure.md\r\n\r\nimport \"./testSupportCode.sol\";\r\ncontract ZombieFactory is TestingSupportCode {\r\n//contract ZombieFactory {\r\n\r\n    event NewZombie(uint zombieId, string name, uint dna, address zombieToOwner, uint ownerZombieCount);\r\n\r\n    uint dnaDigits = 16;\r\n    uint dnaModulus = 10 ** dnaDigits;\r\n    uint minNameLength = 1;\r\n    uint maxNameLength = 15;\r\n\r\n    struct Zombie {\r\n        string name;\r\n        uint dna;\r\n    }\r\n\r\n    Zombie[] public zombies;\r\n\r\n    mapping (uint => address) public zombieToOwner;\r\n    mapping (address => uint) ownerZombieCount;\r\n\r\n\r\n// req ZF_6 Make Zombie in struct and emit id, name and dna\r\n// req ZF_9 Only run this function for the first zombie for each owner\r\n    function createRandomZombie(string memory _name) public {\r\n        require(ownerZombieCount[msg.sender] == 0, \"Only works when you have no Zombies\");\r\n        uint randDna = _generateRandomDna(_name);\r\n        _createZombie(_name, randDna);\r\n    }\r\n\r\n// req ZF_1 Push the Zombie attributes in the zombies struct\r\n// req ZF_2 Emit the Zombie id, name and dna\r\n// req ZF_7 Save the owner of the zombie for future use\r\n// req ZF_8 Keep a count of the number of zombies each owner has\r\n    function _createZombie( string memory _name, uint _dna) internal  {\r\n        uint id = zombies.push(Zombie(_name, _dna)) - 1;\r\n        zombieToOwner[id] = msg.sender;\r\n        ownerZombieCount[msg.sender]++;\r\n        emit NewZombie(id, _name, _dna,  zombieToOwner[id], ownerZombieCount[msg.sender]);\r\n    } \r\n// req ZF_3 Generate a pseudo random number from a string which is returned as the dna\r\n// req ZF_4 Throw an error if string length is too short or long\r\n// req ZF_5 Create id which represents the index of the Zombie in the struct on blockchain\r\n    function _generateRandomDna(string memory _str) private view returns (uint) {\r\n        uint len = bytes(_str).length;\r\n        require((len > minNameLength && len < maxNameLength), \"Name bad length\");  // New code added for tests\r\n        uint rand = uint(keccak256(abi.encodePacked(_str)));\r\n        return rand % dnaModulus;\r\n    }\r\n\r\n}\r\n\r\n",
  "sourcePath": "C:/Users/Eth Coding/Documents/Github/CryptoZombiesT2/Lesson2/contracts/ZombieFactory.sol",
  "compiler": {
    "name": "solc",
    "version": "0.5.0+commit.1d4f565a.Emscripten.clang"
  },
  "schemaVersion": "3.0.6",
  "updatedAt": "2019-04-02T01:31:28.752Z",
  "devdoc": {
    "methods": {}
  },
  "userdoc": {
    "methods": {}
  }
}