{
  "contractName": "ZombieHelper",
  "abi": [
    {
      "constant": false,
      "inputs": [
        {
          "name": "_zombieId",
          "type": "uint256"
        },
        {
          "name": "_kittyId",
          "type": "uint256"
        }
      ],
      "name": "feedOnKitty",
      "outputs": [],
      "payable": false,
      "stateMutability": "nonpayable",
      "type": "function"
    },
    {
      "constant": true,
      "inputs": [
        {
          "name": "",
          "type": "uint256"
        }
      ],
      "name": "zombies",
      "outputs": [
        {
          "name": "name",
          "type": "string"
        },
        {
          "name": "dna",
          "type": "uint256"
        },
        {
          "name": "level",
          "type": "uint32"
        },
        {
          "name": "readyTime",
          "type": "uint32"
        },
        {
          "name": "winCount",
          "type": "uint16"
        },
        {
          "name": "lossCount",
          "type": "uint16"
        }
      ],
      "payable": false,
      "stateMutability": "view",
      "type": "function"
    },
    {
      "constant": true,
      "inputs": [
        {
          "name": "",
          "type": "uint256"
        }
      ],
      "name": "zombieToOwner",
      "outputs": [
        {
          "name": "",
          "type": "address"
        }
      ],
      "payable": false,
      "stateMutability": "view",
      "type": "function"
    },
    {
      "constant": false,
      "inputs": [
        {
          "name": "_address",
          "type": "address"
        }
      ],
      "name": "setKittyContractAddress",
      "outputs": [],
      "payable": false,
      "stateMutability": "nonpayable",
      "type": "function"
    },
    {
      "constant": false,
      "inputs": [],
      "name": "renounceOwnership",
      "outputs": [],
      "payable": false,
      "stateMutability": "nonpayable",
      "type": "function"
    },
    {
      "constant": false,
      "inputs": [
        {
          "name": "_name",
          "type": "string"
        }
      ],
      "name": "createRandomZombie",
      "outputs": [],
      "payable": false,
      "stateMutability": "nonpayable",
      "type": "function"
    },
    {
      "constant": true,
      "inputs": [],
      "name": "owner",
      "outputs": [
        {
          "name": "",
          "type": "address"
        }
      ],
      "payable": false,
      "stateMutability": "view",
      "type": "function"
    },
    {
      "constant": true,
      "inputs": [],
      "name": "isOwner",
      "outputs": [
        {
          "name": "",
          "type": "bool"
        }
      ],
      "payable": false,
      "stateMutability": "view",
      "type": "function"
    },
    {
      "constant": false,
      "inputs": [
        {
          "name": "newOwner",
          "type": "address"
        }
      ],
      "name": "transferOwnership",
      "outputs": [],
      "payable": false,
      "stateMutability": "nonpayable",
      "type": "function"
    },
    {
      "anonymous": false,
      "inputs": [
        {
          "indexed": false,
          "name": "zombieId",
          "type": "uint256"
        },
        {
          "indexed": false,
          "name": "name",
          "type": "string"
        },
        {
          "indexed": false,
          "name": "dna",
          "type": "uint256"
        }
      ],
      "name": "NewZombie",
      "type": "event"
    },
    {
      "anonymous": false,
      "inputs": [
        {
          "indexed": true,
          "name": "previousOwner",
          "type": "address"
        },
        {
          "indexed": true,
          "name": "newOwner",
          "type": "address"
        }
      ],
      "name": "OwnershipTransferred",
      "type": "event"
    },
    {
      "constant": false,
      "inputs": [],
      "name": "withdraw",
      "outputs": [],
      "payable": false,
      "stateMutability": "nonpayable",
      "type": "function"
    },
    {
      "constant": false,
      "inputs": [
        {
          "name": "_fee",
          "type": "uint256"
        }
      ],
      "name": "setLevelUpFee",
      "outputs": [],
      "payable": false,
      "stateMutability": "nonpayable",
      "type": "function"
    },
    {
      "constant": false,
      "inputs": [
        {
          "name": "_zombieId",
          "type": "uint256"
        }
      ],
      "name": "levelUp",
      "outputs": [],
      "payable": true,
      "stateMutability": "payable",
      "type": "function"
    },
    {
      "constant": false,
      "inputs": [
        {
          "name": "_zombieId",
          "type": "uint256"
        },
        {
          "name": "_newName",
          "type": "string"
        }
      ],
      "name": "changeName",
      "outputs": [],
      "payable": false,
      "stateMutability": "nonpayable",
      "type": "function"
    },
    {
      "constant": false,
      "inputs": [
        {
          "name": "_zombieId",
          "type": "uint256"
        },
        {
          "name": "_newDna",
          "type": "uint256"
        }
      ],
      "name": "changeDna",
      "outputs": [],
      "payable": false,
      "stateMutability": "nonpayable",
      "type": "function"
    },
    {
      "constant": true,
      "inputs": [
        {
          "name": "_owner",
          "type": "address"
        }
      ],
      "name": "getZombiesByOwner",
      "outputs": [
        {
          "name": "",
          "type": "uint256[]"
        }
      ],
      "payable": false,
      "stateMutability": "view",
      "type": "function"
    }
  ],
  "bytecode": "0x6080604081905260106001908155662386f26fc1000060025562015180600355600455600f60055566038d7ea4c68000600a5560008054600160a060020a0319163317808255600160a060020a0316917f8be0079c531659141344cd1fd0a4f28419497f9722a3daafe3b4186f6b6457e0908290a36111f3806100836000396000f3fe6080604052600436106100da5763ffffffff7c01000000000000000000000000000000000000000000000000000000006000350416630ce90ec281146100df57806317a7f4cc146100fe5780632052465e1461012e5780633ccfd60b146102045780634412e10414610219578063528b7b8f1461029c5780635f4623f1146102e25780635faf288014610315578063715018a6146103455780637bff0a011461035a5780638da5cb5b1461040d5780638f32d59b14610422578063c39cbef11461044b578063ccf670f8146104cf578063f2fde38b146104f9575b600080fd5b6100fc600480360360208110156100f557600080fd5b503561052c565b005b34801561010a57600080fd5b506100fc6004803603604081101561012157600080fd5b50803590602001356105da565b34801561013a57600080fd5b506101586004803603602081101561015157600080fd5b503561062b565b60408051602080820188905263ffffffff80881693830193909352918516606082015261ffff8085166080830152831660a082015260c080825288519082015287519091829160e08301918a019080838360005b838110156101c45781810151838201526020016101ac565b50505050905090810190601f1680156101f15780820380516001836020036101000a031916815260200191505b5097505050505050505060405180910390f35b34801561021057600080fd5b506100fc61071c565b34801561022557600080fd5b5061024c6004803603602081101561023c57600080fd5b5035600160a060020a031661075f565b60408051602080825283518183015283519192839290830191858101910280838360005b83811015610288578181015183820152602001610270565b505050509050019250505060405180910390f35b3480156102a857600080fd5b506102c6600480360360208110156102bf57600080fd5b5035610815565b60408051600160a060020a039092168252519081900360200190f35b3480156102ee57600080fd5b506100fc6004803603602081101561030557600080fd5b5035600160a060020a0316610830565b34801561032157600080fd5b506100fc6004803603604081101561033857600080fd5b5080359060200135610872565b34801561035157600080fd5b506100fc6108f8565b34801561036657600080fd5b506100fc6004803603602081101561037d57600080fd5b81019060208101813564010000000081111561039857600080fd5b8201836020820111156103aa57600080fd5b803590602001918460018302840111640100000000831117156103cc57600080fd5b91908080601f016020809104026020016040519081016040528093929190818152602001838380828437600092019190915250929550610962945050505050565b34801561041957600080fd5b506102c6610997565b34801561042e57600080fd5b506104376109a7565b604080519115158252519081900360200190f35b34801561045757600080fd5b506100fc6004803603604081101561046e57600080fd5b8135919081019060408101602082013564010000000081111561049057600080fd5b8201836020820111156104a257600080fd5b803590602001918460018302840111640100000000831117156104c457600080fd5b5090925090506109b8565b3480156104db57600080fd5b506100fc600480360360208110156104f257600080fd5b5035610a46565b34801561050557600080fd5b506100fc6004803603602081101561051c57600080fd5b5035600160a060020a0316610a5e565b600a54341461059c57604080517f08c379a000000000000000000000000000000000000000000000000000000000815260206004820152601c60248201527f416d6f756e742073656e74206e6f74206c6576656c2075702066656500000000604482015290519081900360640190fd5b60068054829081106105aa57fe5b60009182526020909120600260039092020101805463ffffffff8082166001011663ffffffff1990911617905550565b60408051808201909152600581527f6b697474790000000000000000000000000000000000000000000000000000006020820152625f16e79060018301906106259085908490610a7a565b50505050565b600680548290811061063957fe5b60009182526020918290206003919091020180546040805160026001841615610100026000190190931692909204601f8101859004850283018501909152808252919350918391908301828280156106d25780601f106106a7576101008083540402835291602001916106d2565b820191906000526020600020905b8154815290600101906020018083116106b557829003601f168201915b505050600184015460029094015492939263ffffffff8082169350640100000000820416915061ffff6801000000000000000082048116916a010000000000000000000090041686565b6107246109a7565b151561072f57600080fd5b6040513390303180156108fc02916000818181858888f1935050505015801561075c573d6000803e3d6000fd5b50565b6060806008600084600160a060020a0316600160a060020a03168152602001908152602001600020546040519080825280602002602001820160405280156107b1578160200160208202803883390190505b5090506000805b60065481101561080c57600081815260076020526040902054600160a060020a0386811691161415610804578083838151811015156107f357fe5b602090810290910101526001909101905b6001016107b8565b50909392505050565b600760205260009081526040902054600160a060020a031681565b6108386109a7565b151561084357600080fd5b6009805473ffffffffffffffffffffffffffffffffffffffff1916600160a060020a0392909216919091179055565b6014828160068281548110151561088557fe5b600091825260209091206002600390920201015463ffffffff1610156108aa57600080fd5b600084815260076020526040902054600160a060020a031633146108cd57600080fd5b826006858154811015156108dd57fe5b90600052602060002090600302016001018190555050505050565b6109006109a7565b151561090b57600080fd5b60008054604051600160a060020a03909116907f8be0079c531659141344cd1fd0a4f28419497f9722a3daafe3b4186f6b6457e0908390a36000805473ffffffffffffffffffffffffffffffffffffffff19169055565b336000908152600860205260409020541561097c57600080fd5b600061098782610cd1565b90506109938282610de2565b5050565b600054600160a060020a03165b90565b600054600160a060020a0316331490565b600283816006828154811015156109cb57fe5b600091825260209091206002600390920201015463ffffffff1610156109f057600080fd5b600085815260076020526040902054600160a060020a03163314610a1357600080fd5b8383600687815481101515610a2457fe5b60009182526020909120610a3e93600390920201916110c1565b505050505050565b610a4e6109a7565b1515610a5957600080fd5b600a55565b610a666109a7565b1515610a7157600080fd5b61075c81611001565b600083815260076020526040902054600160a060020a03163314610aff57604080517f08c379a000000000000000000000000000000000000000000000000000000000815260206004820152601760248201527f5a6f6d626965206e6f74206f776e656420627920796f75000000000000000000604482015290519081900360640190fd5b6000600684815481101515610b1057fe5b90600052602060002090600302019050610b298161107e565b1515610b9657604080517f08c379a000000000000000000000000000000000000000000000000000000000815260206004820152601460248201527f5a6f6d626965206d757374206265207265616479000000000000000000000000604482015290519081900360640190fd5b60025483811515610ba357fe5b0692506000600284836001015401811515610bba57fe5b04905060405160200180807f6b69747479000000000000000000000000000000000000000000000000000000815250600501905060405160208183030381529060405280519060200120836040516020018082805190602001908083835b60208310610c375780518252601f199092019160209182019101610c18565b6001836020036101000a038019825116818451168082178552505050505050905001915050604051602081830303815290604052805190602001201415610c82576064810690036063015b610cc16040805190810160405280600681526020017f4e6f4e616d65000000000000000000000000000000000000000000000000000081525082610de2565b610cca82611097565b5050505050565b80516004546000919081118015610ce9575060055481105b1515610d5657604080517f08c379a000000000000000000000000000000000000000000000000000000000815260206004820152600f60248201527f4e616d6520626164206c656e6774680000000000000000000000000000000000604482015290519081900360640190fd5b6000836040516020018082805190602001908083835b60208310610d8b5780518252601f199092019160209182019101610d6c565b6001836020036101000a0380198251168184511680821785525050505050509050019150506040516020818303038152906040528051906020012060019004905060025481811515610dd957fe5b06949350505050565b6040805160c0810182528381526020808201849052600192820183905260038054420163ffffffff16606084015260006080840181905260a08401819052600680548087018083559183528551805193979692959294919091027ff652222313e28459528d920b65115c16c04f3efc82aaedc97be59f3f377c0d3f0192610e6c928492019061113f565b50602082810151600183810191909155604080850151600290940180546060808801516080808a015160a0909a015163ffffffff1990941663ffffffff998a161767ffffffff00000000191664010000000099909216989098021769ffff000000000000000019166801000000000000000061ffff998a1602176bffff0000000000000000000019166a010000000000000000000098909216979097021790559590940360008181526007835286812080543373ffffffffffffffffffffffffffffffffffffffff1990911681179091558152600883528681208054909601909555855181815295860188905285820184815289519487019490945288519096507f88f026aacbbecc90c18411df4b1185fd8d9be2470f1962f192bf84a27d0704b79587958a958a959294909392850192908701918190849084905b83811015610fc0578181015183820152602001610fa8565b50505050905090810190601f168015610fed5780820380516001836020036101000a031916815260200191505b5094505050505060405180910390a1505050565b600160a060020a038116151561101657600080fd5b60008054604051600160a060020a03808516939216917f8be0079c531659141344cd1fd0a4f28419497f9722a3daafe3b4186f6b6457e091a36000805473ffffffffffffffffffffffffffffffffffffffff1916600160a060020a0392909216919091179055565b600201544264010000000090910463ffffffff16111590565b60035442018160020160046101000a81548163ffffffff021916908363ffffffff16021790555050565b828054600181600116156101000203166002900490600052602060002090601f016020900481019282601f106111025782800160ff1982351617855561112f565b8280016001018555821561112f579182015b8281111561112f578235825591602001919060010190611114565b5061113b9291506111ad565b5090565b828054600181600116156101000203166002900490600052602060002090601f016020900481019282601f1061118057805160ff191683800117855561112f565b8280016001018555821561112f579182015b8281111561112f578251825591602001919060010190611192565b6109a491905b8082111561113b57600081556001016111b356fea165627a7a723058209c13b2d590a073dddd039e145cb0f4bbfae5d94d7d28c2eb23c592d3ad73e0420029",
  "source": "/// @title CryptoZombies Lesson 3\r\n/// @author H4XF13LD MORRIS 💯💯😎💯💯 (documentation by Rex Hygate)\r\n// @Github https://github.com/SecurEth/CryptoZombiesT1/Chapter1\r\n// @SDD \"./doc./System Description Document.md\"\r\n// @ARCH ./doc/Crpto...\r\n\r\npragma solidity >=0.4.0 <0.6.0;\r\n\r\nimport \"./zombiefeeding.sol\";\r\n\r\ncontract ZombieHelper is ZombieFeeding {\r\n\r\n    uint levelUpFee = 0.001 ether;  // Initial Level up Fee\r\n\r\n    modifier aboveLevel(uint _level, uint _zombieId) {\r\n      require(zombies[_zombieId].level >= _level);\r\n      _;\r\n    }\r\n\r\n// req ZH1 The owner can withdraw the balance of the contract\r\n    function withdraw() external onlyOwner {\r\n       msg.sender.transfer(address(this).balance);\r\n    }\r\n\r\n// req ZH2 The owner can change the level up fee\r\n    function setLevelUpFee(uint _fee) external onlyOwner {\r\n        levelUpFee = _fee;\r\n    }\r\n\r\n\r\n// req ZH3 Level up a zombie after the fee is paid\r\n// req ZH4 If the amount sent is not exactly the fee, reject the transaction\r\n    function levelUp(uint _zombieId) external payable {\r\n        require(msg.value == levelUpFee, \"Amount sent not level up fee\");\r\n        zombies[_zombieId].level++;\r\n    }\r\n\r\n// req ZH5 Changes the name of a zombie\r\n// req ZH6 Name change can only be done by the zombie's owner\r\n    function changeName(uint _zombieId, string calldata _newName) external aboveLevel(2, _zombieId) {\r\n        require(msg.sender == zombieToOwner[_zombieId]);\r\n        // Check length of name\r\n        zombies[_zombieId].name = _newName;\r\n    }\r\n// ZH7 Changes the dna of a zombie if it is above level 20\r\n// ZH8 Only the owner of a zombie can change its dna\r\n    function changeDna(uint _zombieId, uint _newDna) external aboveLevel(20, _zombieId) {\r\n        require(msg.sender == zombieToOwner[_zombieId]);\r\n        zombies[_zombieId].dna = _newDna;\r\n    }\r\n\r\n// ZH9 Create and return an array of the number of zombies by owner for use in other function\r\n    function getZombiesByOwner(address _owner) external view returns(uint[] memory) {\r\n        uint[] memory result = new uint[](ownerZombieCount[_owner]);\r\n        uint counter = 0;\r\n        for (uint i = 0; i < zombies.length; i++) {\r\n            if (zombieToOwner[i] == _owner) {\r\n                result[counter] = i;\r\n                counter++;\r\n            }\r\n        }   \r\n        return result;\r\n    }\r\n}\r\n",
  "sourcePath": "C:\\Users\\Eth Coding\\Documents\\Github\\CryptoZombiesT2\\Lesson4\\contracts\\zombiehelper.sol",
  "compiler": {
    "name": "solc",
    "version": "0.5.0+commit.1d4f565a.Emscripten.clang"
  },
  "schemaVersion": "3.0.6",
  "updatedAt": "2019-04-22T17:41:41.335Z",
  "devdoc": {
    "methods": {
      "isOwner()": {
        "return": "true if `msg.sender` is the owner of the contract.\r"
      },
      "owner()": {
        "return": "the address of the owner.\r"
      },
      "renounceOwnership()": {
        "details": "Allows the current owner to relinquish control of the contract.\r"
      },
      "transferOwnership(address)": {
        "details": "Allows the current owner to transfer control of the contract to a newOwner.\r",
        "params": {
          "newOwner": "The address to transfer ownership to.\r"
        }
      }
    }
  },
  "userdoc": {
    "methods": {
      "renounceOwnership()": {
        "notice": "Renouncing to ownership will leave the contract without an owner.\r It will not be possible to call the functions with the `onlyOwner`\r modifier anymore.\r"
      }
    }
  }
}