{
  "contractName": "TestingSupportCode",
  "abi": [
    {
      "constant": false,
      "inputs": [],
      "name": "renounceOwnership",
      "outputs": [],
      "payable": false,
      "stateMutability": "nonpayable",
      "type": "function"
    },
    {
      "constant": true,
      "inputs": [
        {
          "name": "",
          "type": "uint256"
        }
      ],
      "name": "kittieToOwner",
      "outputs": [
        {
          "name": "",
          "type": "address"
        }
      ],
      "payable": false,
      "stateMutability": "view",
      "type": "function"
    },
    {
      "constant": true,
      "inputs": [
        {
          "name": "",
          "type": "uint256"
        }
      ],
      "name": "kitties",
      "outputs": [
        {
          "name": "isGestating",
          "type": "bool"
        },
        {
          "name": "isReady",
          "type": "bool"
        },
        {
          "name": "cooldownIndex",
          "type": "uint256"
        },
        {
          "name": "nextActionAt",
          "type": "uint256"
        },
        {
          "name": "siringWithId",
          "type": "uint256"
        },
        {
          "name": "birthTime",
          "type": "uint256"
        },
        {
          "name": "matronId",
          "type": "uint256"
        },
        {
          "name": "sireId",
          "type": "uint256"
        },
        {
          "name": "generation",
          "type": "uint256"
        },
        {
          "name": "genes",
          "type": "uint256"
        }
      ],
      "payable": false,
      "stateMutability": "view",
      "type": "function"
    },
    {
      "constant": true,
      "inputs": [],
      "name": "owner",
      "outputs": [
        {
          "name": "",
          "type": "address"
        }
      ],
      "payable": false,
      "stateMutability": "view",
      "type": "function"
    },
    {
      "constant": true,
      "inputs": [],
      "name": "isOwner",
      "outputs": [
        {
          "name": "",
          "type": "bool"
        }
      ],
      "payable": false,
      "stateMutability": "view",
      "type": "function"
    },
    {
      "constant": false,
      "inputs": [
        {
          "name": "newOwner",
          "type": "address"
        }
      ],
      "name": "transferOwnership",
      "outputs": [],
      "payable": false,
      "stateMutability": "nonpayable",
      "type": "function"
    },
    {
      "anonymous": false,
      "inputs": [
        {
          "indexed": false,
          "name": "kittieToOwner",
          "type": "address"
        }
      ],
      "name": "KittieAddr",
      "type": "event"
    },
    {
      "anonymous": false,
      "inputs": [
        {
          "indexed": true,
          "name": "previousOwner",
          "type": "address"
        },
        {
          "indexed": true,
          "name": "newOwner",
          "type": "address"
        }
      ],
      "name": "OwnershipTransferred",
      "type": "event"
    },
    {
      "constant": false,
      "inputs": [],
      "name": "createKittie",
      "outputs": [],
      "payable": false,
      "stateMutability": "nonpayable",
      "type": "function"
    }
  ],
  "bytecode": "0x6080604081905260008054600160a060020a0319163317808255600160a060020a0316917f8be0079c531659141344cd1fd0a4f28419497f9722a3daafe3b4186f6b6457e0908290a36107e1806100576000396000f3fe6080604052600436106100825763ffffffff7c0100000000000000000000000000000000000000000000000000000000600035041663715018a681146100875780638557b2c81461009e5780638cc51eda146100f15780638da5cb5b1461016d5780638f32d59b1461018257806399baabea146101ab578063f2fde38b146101c0575b600080fd5b34801561009357600080fd5b5061009c610200565b005b3480156100aa57600080fd5b506100c8600480360360208110156100c157600080fd5b50356102d9565b6040805173ffffffffffffffffffffffffffffffffffffffff9092168252519081900360200190f35b3480156100fd57600080fd5b5061011b6004803603602081101561011457600080fd5b5035610301565b604080519a15158b5298151560208b0152898901979097526060890195909552608088019390935260a087019190915260c086015260e085015261010084015261012083015251908190036101400190f35b34801561017957600080fd5b506100c861036b565b34801561018e57600080fd5b50610197610387565b604080519115158252519081900360200190f35b3480156101b757600080fd5b5061009c6103a5565b3480156101cc57600080fd5b5061009c600480360360208110156101e357600080fd5b503573ffffffffffffffffffffffffffffffffffffffff16610608565b610208610387565b151561027557604080517f08c379a000000000000000000000000000000000000000000000000000000000815260206004820152601b60248201527f43616c6c6564206279206f74686572207468616e206f776e65722e0000000000604482015290519081900360640190fd5b6000805460405173ffffffffffffffffffffffffffffffffffffffff909116907f8be0079c531659141344cd1fd0a4f28419497f9722a3daafe3b4186f6b6457e0908390a36000805473ffffffffffffffffffffffffffffffffffffffff19169055565b60026020526000908152604090205473ffffffffffffffffffffffffffffffffffffffff1681565b600180548290811061030f57fe5b600091825260209091206009909102018054600182015460028301546003840154600485015460058601546006870154600788015460089098015460ff8089169a5061010090980490971697959694959394929391929091908a565b60005473ffffffffffffffffffffffffffffffffffffffff1690565b60005473ffffffffffffffffffffffffffffffffffffffff16331490565b6040805161014081018252600180825260208083018281526005848601908152600760608601908152600960808701818152600b60a08901908152600d60c08a01908152600f60e08b019081526011610100808d0191825260156101208e019081528c54808e018e5560009d8e529d51978e027fb10e2d527612073b26eecdfd717e6a320cf44b4afac2b0732d9fcbe2b7fa0cf6810180549c51151590930261ff001999151560ff199d909d169c909c17989098169a909a17905596517fb10e2d527612073b26eecdfd717e6a320cf44b4afac2b0732d9fcbe2b7fa0cf786015594517fb10e2d527612073b26eecdfd717e6a320cf44b4afac2b0732d9fcbe2b7fa0cf885015591517fb10e2d527612073b26eecdfd717e6a320cf44b4afac2b0732d9fcbe2b7fa0cf9840155517fb10e2d527612073b26eecdfd717e6a320cf44b4afac2b0732d9fcbe2b7fa0cfa830155517fb10e2d527612073b26eecdfd717e6a320cf44b4afac2b0732d9fcbe2b7fa0cfb82015590517fb10e2d527612073b26eecdfd717e6a320cf44b4afac2b0732d9fcbe2b7fa0cfc82015590517fb10e2d527612073b26eecdfd717e6a320cf44b4afac2b0732d9fcbe2b7fa0cfd82015590517fb10e2d527612073b26eecdfd717e6a320cf44b4afac2b0732d9fcbe2b7fa0cfe909101558282526002815290839020805473ffffffffffffffffffffffffffffffffffffffff1916331790819055835173ffffffffffffffffffffffffffffffffffffffff919091168152925191927fe3e4af54b932ca741acf90e7d537fe26272376a7085502edf8c731218effe18f929081900390910190a150565b610610610387565b151561067d57604080517f08c379a000000000000000000000000000000000000000000000000000000000815260206004820152601b60248201527f43616c6c6564206279206f74686572207468616e206f776e65722e0000000000604482015290519081900360640190fd5b61068681610689565b50565b73ffffffffffffffffffffffffffffffffffffffff8116151561073357604080517f08c379a000000000000000000000000000000000000000000000000000000000815260206004820152602360248201527f5472616e73666572206164647265737320666f72206e65774f776e657220697360448201527f20302e0000000000000000000000000000000000000000000000000000000000606482015290519081900360840190fd5b6000805460405173ffffffffffffffffffffffffffffffffffffffff808516939216917f8be0079c531659141344cd1fd0a4f28419497f9722a3daafe3b4186f6b6457e091a36000805473ffffffffffffffffffffffffffffffffffffffff191673ffffffffffffffffffffffffffffffffffffffff9290921691909117905556fea165627a7a723058206400811717ca61bbad8ef56cad73b093a3d34e0708ccae6f1d18810e1b1a43d60029",
  "source": "pragma solidity >=0.4.0 <0.6.0;\r\n\r\n/// @title CryptoZombies Testing Support Code\r\n/// @author Rex Hygate \r\n// @Github https://github.com/SecurEth/CryptoZombiesT2/Lesson3\r\n// @SDD \"./doc./System Description Document.md\"\r\n// @ARCH ./doc/architecure.md\r\n\r\nimport \"./ownable.sol\";\r\n\r\ncontract TestingSupportCode is Ownable {\r\n    \r\n    event KittieAddr(address kittieToOwner);\r\n\r\n    struct Kittie {\r\n        bool isGestating;\r\n        bool isReady;\r\n        uint256 cooldownIndex;\r\n        uint256 nextActionAt;\r\n        uint256 siringWithId;\r\n        uint256 birthTime;\r\n        uint256 matronId;\r\n        uint256 sireId;\r\n        uint256 generation;\r\n        uint256 genes;\r\n    }\r\n\r\n    Kittie[] public kitties;\r\n\r\n    mapping (uint => address) public kittieToOwner;\r\n\r\n    function createKittie () public {\r\n        uint kid = kitties.push(Kittie(\r\n            true, // isGestating\r\n            true, // isReady\r\n            5, // cooldownIndex\r\n            7, // nextActionAt\r\n            9, // siringWithId\r\n            11, // birthTime\r\n            13, // matronId\r\n            15, // sireId\r\n            17, // generation\r\n            21 // genes\r\n        )) - 1;\r\n        kittieToOwner[kid] = msg.sender;\r\n        emit KittieAddr(kittieToOwner[kid]);\r\n    }\r\n\r\n}",
  "sourcePath": "C:\\Users\\Eth Coding\\Documents\\Github\\CryptoZombiesT2\\Lesson3\\contracts\\testSupportCode.sol",
  "compiler": {
    "name": "solc",
    "version": "0.5.0+commit.1d4f565a.Emscripten.clang"
  },
  "schemaVersion": "3.0.6",
  "updatedAt": "2019-04-20T22:57:49.974Z",
  "devdoc": {
    "methods": {
      "isOwner()": {
        "return": "true if `msg.sender` is the owner of the contract.\r"
      },
      "owner()": {
        "return": "the address of the owner.\r"
      },
      "renounceOwnership()": {
        "details": "Allows the current owner to relinquish control of the contract.\r"
      },
      "transferOwnership(address)": {
        "details": "Allows the current owner to transfer control of the contract to a newOwner.\r",
        "params": {
          "newOwner": "The address to transfer ownership to.\r"
        }
      }
    }
  },
  "userdoc": {
    "methods": {
      "renounceOwnership()": {
        "notice": "Renouncing to ownership will leave the contract without an owner.\r It will not be possible to call the functions with the `onlyOwner`\r modifier anymore.\r"
      }
    }
  }
}