{
  "contractName": "ZombieFactory",
  "abi": [
    {
      "constant": true,
      "inputs": [
        {
          "name": "",
          "type": "uint256"
        }
      ],
      "name": "zombies",
      "outputs": [
        {
          "name": "name",
          "type": "string"
        },
        {
          "name": "dna",
          "type": "uint256"
        },
        {
          "name": "level",
          "type": "uint32"
        },
        {
          "name": "readyTime",
          "type": "uint32"
        }
      ],
      "payable": false,
      "stateMutability": "view",
      "type": "function"
    },
    {
      "constant": true,
      "inputs": [
        {
          "name": "",
          "type": "uint256"
        }
      ],
      "name": "zombieToOwner",
      "outputs": [
        {
          "name": "",
          "type": "address"
        }
      ],
      "payable": false,
      "stateMutability": "view",
      "type": "function"
    },
    {
      "constant": false,
      "inputs": [],
      "name": "renounceOwnership",
      "outputs": [],
      "payable": false,
      "stateMutability": "nonpayable",
      "type": "function"
    },
    {
      "constant": true,
      "inputs": [
        {
          "name": "",
          "type": "uint256"
        }
      ],
      "name": "kittieToOwner",
      "outputs": [
        {
          "name": "",
          "type": "address"
        }
      ],
      "payable": false,
      "stateMutability": "view",
      "type": "function"
    },
    {
      "constant": true,
      "inputs": [
        {
          "name": "",
          "type": "uint256"
        }
      ],
      "name": "kitties",
      "outputs": [
        {
          "name": "isGestating",
          "type": "bool"
        },
        {
          "name": "isReady",
          "type": "bool"
        },
        {
          "name": "cooldownIndex",
          "type": "uint256"
        },
        {
          "name": "nextActionAt",
          "type": "uint256"
        },
        {
          "name": "siringWithId",
          "type": "uint256"
        },
        {
          "name": "birthTime",
          "type": "uint256"
        },
        {
          "name": "matronId",
          "type": "uint256"
        },
        {
          "name": "sireId",
          "type": "uint256"
        },
        {
          "name": "generation",
          "type": "uint256"
        },
        {
          "name": "genes",
          "type": "uint256"
        }
      ],
      "payable": false,
      "stateMutability": "view",
      "type": "function"
    },
    {
      "constant": true,
      "inputs": [],
      "name": "owner",
      "outputs": [
        {
          "name": "",
          "type": "address"
        }
      ],
      "payable": false,
      "stateMutability": "view",
      "type": "function"
    },
    {
      "constant": true,
      "inputs": [],
      "name": "isOwner",
      "outputs": [
        {
          "name": "",
          "type": "bool"
        }
      ],
      "payable": false,
      "stateMutability": "view",
      "type": "function"
    },
    {
      "constant": false,
      "inputs": [],
      "name": "createKittie",
      "outputs": [],
      "payable": false,
      "stateMutability": "nonpayable",
      "type": "function"
    },
    {
      "constant": false,
      "inputs": [
        {
          "name": "newOwner",
          "type": "address"
        }
      ],
      "name": "transferOwnership",
      "outputs": [],
      "payable": false,
      "stateMutability": "nonpayable",
      "type": "function"
    },
    {
      "anonymous": false,
      "inputs": [
        {
          "indexed": false,
          "name": "zombieId",
          "type": "uint256"
        },
        {
          "indexed": false,
          "name": "name",
          "type": "string"
        },
        {
          "indexed": false,
          "name": "dna",
          "type": "uint256"
        },
        {
          "indexed": false,
          "name": "zombieToOwner",
          "type": "address"
        },
        {
          "indexed": false,
          "name": "ownerZombieCount",
          "type": "uint256"
        }
      ],
      "name": "NewZombie",
      "type": "event"
    },
    {
      "anonymous": false,
      "inputs": [
        {
          "indexed": false,
          "name": "kittieToOwner",
          "type": "address"
        }
      ],
      "name": "KittieAddr",
      "type": "event"
    },
    {
      "anonymous": false,
      "inputs": [
        {
          "indexed": true,
          "name": "previousOwner",
          "type": "address"
        },
        {
          "indexed": true,
          "name": "newOwner",
          "type": "address"
        }
      ],
      "name": "OwnershipTransferred",
      "type": "event"
    },
    {
      "constant": false,
      "inputs": [
        {
          "name": "_name",
          "type": "string"
        }
      ],
      "name": "createRandomZombie",
      "outputs": [],
      "payable": false,
      "stateMutability": "nonpayable",
      "type": "function"
    }
  ],
  "bytecode": "0x6080604081905260106003908155662386f26fc100006004556005556001600655600f60075560008054600160a060020a0319163317808255600160a060020a0316917f8be0079c531659141344cd1fd0a4f28419497f9722a3daafe3b4186f6b6457e0908290a3610efd806100766000396000f3fe6080604052600436106100a35763ffffffff7c01000000000000000000000000000000000000000000000000000000006000350416632052465e81146100a8578063528b7b8f14610177578063715018a6146101ca5780637bff0a01146101e15780638557b2c8146102945780638cc51eda146102be5780638da5cb5b1461033a5780638f32d59b1461034f57806399baabea14610378578063f2fde38b1461038d575b600080fd5b3480156100b457600080fd5b506100d2600480360360208110156100cb57600080fd5b50356103cd565b60405180806020018581526020018463ffffffff1663ffffffff1681526020018363ffffffff1663ffffffff168152602001828103825286818151815260200191508051906020019080838360005b83811015610139578181015183820152602001610121565b50505050905090810190601f1680156101665780820380516001836020036101000a031916815260200191505b509550505050505060405180910390f35b34801561018357600080fd5b506101a16004803603602081101561019a57600080fd5b503561049d565b6040805173ffffffffffffffffffffffffffffffffffffffff9092168252519081900360200190f35b3480156101d657600080fd5b506101df6104c5565b005b3480156101ed57600080fd5b506101df6004803603602081101561020457600080fd5b81019060208101813564010000000081111561021f57600080fd5b82018360208201111561023157600080fd5b8035906020019184600183028401116401000000008311171561025357600080fd5b91908080601f01602080910402602001604051908101604052809392919081815260200183838082843760009201919091525092955061059e945050505050565b3480156102a057600080fd5b506101a1600480360360208110156102b757600080fd5b503561065b565b3480156102ca57600080fd5b506102e8600480360360208110156102e157600080fd5b5035610683565b604080519a15158b5298151560208b0152898901979097526060890195909552608088019390935260a087019190915260c086015260e085015261010084015261012083015251908190036101400190f35b34801561034657600080fd5b506101a16106ed565b34801561035b57600080fd5b5061036461070a565b604080519115158252519081900360200190f35b34801561038457600080fd5b506101df610728565b34801561039957600080fd5b506101df600480360360208110156103b057600080fd5b503573ffffffffffffffffffffffffffffffffffffffff1661098b565b60088054829081106103db57fe5b60009182526020918290206003919091020180546040805160026001841615610100026000190190931692909204601f8101859004850283018501909152808252919350918391908301828280156104745780601f1061044957610100808354040283529160200191610474565b820191906000526020600020905b81548152906001019060200180831161045757829003601f168201915b50505050600183015460029093015491929163ffffffff80821692506401000000009091041684565b60096020526000908152604090205473ffffffffffffffffffffffffffffffffffffffff1681565b6104cd61070a565b151561053a57604080517f08c379a000000000000000000000000000000000000000000000000000000000815260206004820152601b60248201527f43616c6c6564206279206f74686572207468616e206f776e65722e0000000000604482015290519081900360640190fd5b6000805460405173ffffffffffffffffffffffffffffffffffffffff909116907f8be0079c531659141344cd1fd0a4f28419497f9722a3daafe3b4186f6b6457e0908390a36000805473ffffffffffffffffffffffffffffffffffffffff19169055565b336000908152600a60205260409020541561064057604080517f08c379a000000000000000000000000000000000000000000000000000000000815260206004820152602360248201527f4f6e6c7920776f726b73207768656e20796f752068617665206e6f205a6f6d6260448201527f6965730000000000000000000000000000000000000000000000000000000000606482015290519081900360840190fd5b600061064b82610a0c565b90506106578282610b1d565b5050565b60026020526000908152604090205473ffffffffffffffffffffffffffffffffffffffff1681565b600180548290811061069157fe5b600091825260209091206009909102018054600182015460028301546003840154600485015460058601546006870154600788015460089098015460ff8089169a5061010090980490971697959694959394929391929091908a565b60005473ffffffffffffffffffffffffffffffffffffffff165b90565b60005473ffffffffffffffffffffffffffffffffffffffff16331490565b6040805161014081018252600180825260208083018281526005848601908152600760608601908152600960808701818152600b60a08901908152600d60c08a01908152600f60e08b019081526011610100808d0191825260156101208e019081528c54808e018e5560009d8e529d51978e027fb10e2d527612073b26eecdfd717e6a320cf44b4afac2b0732d9fcbe2b7fa0cf6810180549c51151590930261ff001999151560ff199d909d169c909c17989098169a909a17905596517fb10e2d527612073b26eecdfd717e6a320cf44b4afac2b0732d9fcbe2b7fa0cf786015594517fb10e2d527612073b26eecdfd717e6a320cf44b4afac2b0732d9fcbe2b7fa0cf885015591517fb10e2d527612073b26eecdfd717e6a320cf44b4afac2b0732d9fcbe2b7fa0cf9840155517fb10e2d527612073b26eecdfd717e6a320cf44b4afac2b0732d9fcbe2b7fa0cfa830155517fb10e2d527612073b26eecdfd717e6a320cf44b4afac2b0732d9fcbe2b7fa0cfb82015590517fb10e2d527612073b26eecdfd717e6a320cf44b4afac2b0732d9fcbe2b7fa0cfc82015590517fb10e2d527612073b26eecdfd717e6a320cf44b4afac2b0732d9fcbe2b7fa0cfd82015590517fb10e2d527612073b26eecdfd717e6a320cf44b4afac2b0732d9fcbe2b7fa0cfe909101558282526002815290839020805473ffffffffffffffffffffffffffffffffffffffff1916331790819055835173ffffffffffffffffffffffffffffffffffffffff919091168152925191927fe3e4af54b932ca741acf90e7d537fe26272376a7085502edf8c731218effe18f929081900390910190a150565b61099361070a565b1515610a0057604080517f08c379a000000000000000000000000000000000000000000000000000000000815260206004820152601b60248201527f43616c6c6564206279206f74686572207468616e206f776e65722e0000000000604482015290519081900360640190fd5b610a0981610d0d565b50565b80516006546000919081118015610a24575060075481105b1515610a9157604080517f08c379a000000000000000000000000000000000000000000000000000000000815260206004820152600f60248201527f4e616d6520626164206c656e6774680000000000000000000000000000000000604482015290519081900360640190fd5b6000836040516020018082805190602001908083835b60208310610ac65780518252601f199092019160209182019101610aa7565b6001836020036101000a0380198251168184511680821785525050505050509050019150506040516020818303038152906040528051906020012060019004905060045481811515610b1457fe5b06949350505050565b6040805160808101825283815260208082018490526001928201839052600554420163ffffffff166060830152600880548085018083556000928352845180519396959194919360039093027ff3f7a9fe364faab93b216da50a3214154f22a0a2b415b23a84c8169e8b636ee30192610b999284920190610e39565b506020828101516001838101919091556040808501516002909401805460609687015163ffffffff9081166401000000000267ffffffff00000000199190971663ffffffff1990921691909117169490941790935594909303600081815260098552828120805473ffffffffffffffffffffffffffffffffffffffff19163390811782558252600a865283822080549097019687905554835183815293840189905273ffffffffffffffffffffffffffffffffffffffff169383018490526080830186905260a08386018181528a519185019190915289519297507f9dfb8159c8f41d296587ad1c564820650440f2cb3a7f0c2b6443058dc6af4f089688968b968b969095929490939260c08501928901918190849084905b83811015610cca578181015183820152602001610cb2565b50505050905090810190601f168015610cf75780820380516001836020036101000a031916815260200191505b50965050505050505060405180910390a1505050565b73ffffffffffffffffffffffffffffffffffffffff81161515610db757604080517f08c379a000000000000000000000000000000000000000000000000000000000815260206004820152602360248201527f5472616e73666572206164647265737320666f72206e65774f776e657220697360448201527f20302e0000000000000000000000000000000000000000000000000000000000606482015290519081900360840190fd5b6000805460405173ffffffffffffffffffffffffffffffffffffffff808516939216917f8be0079c531659141344cd1fd0a4f28419497f9722a3daafe3b4186f6b6457e091a36000805473ffffffffffffffffffffffffffffffffffffffff191673ffffffffffffffffffffffffffffffffffffffff92909216919091179055565b828054600181600116156101000203166002900490600052602060002090601f016020900481019282601f10610e7a57805160ff1916838001178555610ea7565b82800160010185558215610ea7579182015b82811115610ea7578251825591602001919060010190610e8c565b50610eb3929150610eb7565b5090565b61070791905b80821115610eb35760008155600101610ebd56fea165627a7a72305820cf48a54116393f54d197835b055b207f768ada1e75a24153658f82af82c973970029",
  "source": "pragma solidity >=0.4.0 <0.6.0;\r\n\r\n/// @title CryptoZombies Lesson 3\r\n/// @author H4XF13LD MORRIS 💯💯😎💯💯 (documentation by Rex Hygate)\r\n// @Github https://github.com/SecurEth/CryptoZombiesT2/Lesson3\r\n// @SDD \"./doc./System Description Document.md\"\r\n// @ARCH ./doc/architecure.md\r\n\r\n//import \"./ownable.sol\";\r\n//contract ZombieFactory is Ownable {\r\n\r\nimport \"./testSupportCode.sol\";\r\ncontract ZombieFactory is TestingSupportCode {\r\n\r\n    event NewZombie(uint zombieId, string name, uint dna, address zombieToOwner, uint ownerZombieCount);\r\n//    event NewZombie(uint zombieId, string name, uint dna);\r\n\r\n    uint dnaDigits = 16;\r\n    uint dnaModulus = 10 ** dnaDigits;\r\n    uint cooldownTime = 3 seconds;\r\n    uint minNameLength = 1;\r\n    uint maxNameLength = 15;\r\n\r\n    struct Zombie {\r\n        string name;\r\n        uint dna;\r\n        uint32 level;\r\n        uint32 readyTime;\r\n    }\r\n\r\n    Zombie[] public zombies;\r\n\r\n    mapping (uint => address) public zombieToOwner;\r\n    mapping (address => uint) ownerZombieCount;\r\n \r\n// req ZF_6 Make Zombie in struct and emit id, name and dna\r\n// req ZF_9 Only run this function for the first zombie for each owner\r\n    function createRandomZombie(string memory _name) public {\r\n        require(ownerZombieCount[msg.sender] == 0, \"Only works when you have no Zombies\");\r\n        uint randDna = _generateRandomDna(_name);\r\n        _createZombie(_name, randDna);\r\n    }\r\n\r\n// req ZF_1 Push the Zombie attributes in the zombies struct\r\n// req ZF_2 Emit the Zombie id, name and dna\r\n// req ZF_7 Save the owner of the zombie for future use\r\n// req ZF_8 Keep a count of the number of zombies each owner has\r\n// req ZF_10 Initiate cooldown of zombie\r\n    function _createZombie(string memory _name, uint _dna) internal  {\r\n        uint id = zombies.push(Zombie(_name, _dna, 1, uint32(now + cooldownTime))) - 1;\r\n        zombieToOwner[id] = msg.sender;\r\n        ownerZombieCount[msg.sender]++;\r\n        emit NewZombie(id, _name, _dna,  zombieToOwner[id], ownerZombieCount[msg.sender]);\r\n//        emit NewZombie(id, _name, _dna);\r\n    } \r\n\r\n// req ZF_3 Generate a pseudo random number from a string which is returned as the dna\r\n// req ZF_4 Throw an error if string length is too short or long\r\n// req ZF_5 Create id which represents the index of the Zombie in the struct on blockchain\r\n    function _generateRandomDna(string memory _str) private view returns (uint) {\r\n        uint len = bytes(_str).length;\r\n        require((len > minNameLength && len < maxNameLength), \"Name bad length\");  // New code added for tests\r\n        uint rand = uint(keccak256(abi.encodePacked(_str)));\r\n        return rand % dnaModulus;\r\n    }\r\n\r\n}\r\n\r\n",
  "sourcePath": "C:/Users/Eth Coding/Documents/Github/CryptoZombiesT2/Lesson3/contracts/ZombieFactory.sol",
  "compiler": {
    "name": "solc",
    "version": "0.5.0+commit.1d4f565a.Emscripten.clang"
  },
  "schemaVersion": "3.0.6",
  "updatedAt": "2019-04-20T22:57:49.984Z",
  "devdoc": {
    "methods": {
      "isOwner()": {
        "return": "true if `msg.sender` is the owner of the contract.\r"
      },
      "owner()": {
        "return": "the address of the owner.\r"
      },
      "renounceOwnership()": {
        "details": "Allows the current owner to relinquish control of the contract.\r"
      },
      "transferOwnership(address)": {
        "details": "Allows the current owner to transfer control of the contract to a newOwner.\r",
        "params": {
          "newOwner": "The address to transfer ownership to.\r"
        }
      }
    }
  },
  "userdoc": {
    "methods": {
      "renounceOwnership()": {
        "notice": "Renouncing to ownership will leave the contract without an owner.\r It will not be possible to call the functions with the `onlyOwner`\r modifier anymore.\r"
      }
    }
  }
}