{
  "contractName": "ZombieHelper",
  "abi": [
    {
      "constant": false,
      "inputs": [
        {
          "name": "_zombieId",
          "type": "uint256"
        },
        {
          "name": "_kittyId",
          "type": "uint256"
        }
      ],
      "name": "feedOnKitty",
      "outputs": [],
      "payable": false,
      "stateMutability": "nonpayable",
      "type": "function"
    },
    {
      "constant": true,
      "inputs": [
        {
          "name": "",
          "type": "uint256"
        }
      ],
      "name": "zombies",
      "outputs": [
        {
          "name": "name",
          "type": "string"
        },
        {
          "name": "dna",
          "type": "uint256"
        },
        {
          "name": "level",
          "type": "uint32"
        },
        {
          "name": "readyTime",
          "type": "uint32"
        }
      ],
      "payable": false,
      "stateMutability": "view",
      "type": "function"
    },
    {
      "constant": true,
      "inputs": [
        {
          "name": "",
          "type": "uint256"
        }
      ],
      "name": "zombieToOwner",
      "outputs": [
        {
          "name": "",
          "type": "address"
        }
      ],
      "payable": false,
      "stateMutability": "view",
      "type": "function"
    },
    {
      "constant": false,
      "inputs": [
        {
          "name": "_address",
          "type": "address"
        }
      ],
      "name": "setKittyContractAddress",
      "outputs": [],
      "payable": false,
      "stateMutability": "nonpayable",
      "type": "function"
    },
    {
      "constant": false,
      "inputs": [],
      "name": "renounceOwnership",
      "outputs": [],
      "payable": false,
      "stateMutability": "nonpayable",
      "type": "function"
    },
    {
      "constant": false,
      "inputs": [
        {
          "name": "_name",
          "type": "string"
        }
      ],
      "name": "createRandomZombie",
      "outputs": [],
      "payable": false,
      "stateMutability": "nonpayable",
      "type": "function"
    },
    {
      "constant": true,
      "inputs": [],
      "name": "owner",
      "outputs": [
        {
          "name": "",
          "type": "address"
        }
      ],
      "payable": false,
      "stateMutability": "view",
      "type": "function"
    },
    {
      "constant": true,
      "inputs": [],
      "name": "isOwner",
      "outputs": [
        {
          "name": "",
          "type": "bool"
        }
      ],
      "payable": false,
      "stateMutability": "view",
      "type": "function"
    },
    {
      "constant": false,
      "inputs": [
        {
          "name": "newOwner",
          "type": "address"
        }
      ],
      "name": "transferOwnership",
      "outputs": [],
      "payable": false,
      "stateMutability": "nonpayable",
      "type": "function"
    },
    {
      "anonymous": false,
      "inputs": [
        {
          "indexed": false,
          "name": "zombieId",
          "type": "uint256"
        },
        {
          "indexed": false,
          "name": "name",
          "type": "string"
        },
        {
          "indexed": false,
          "name": "dna",
          "type": "uint256"
        }
      ],
      "name": "NewZombie",
      "type": "event"
    },
    {
      "anonymous": false,
      "inputs": [
        {
          "indexed": true,
          "name": "previousOwner",
          "type": "address"
        },
        {
          "indexed": true,
          "name": "newOwner",
          "type": "address"
        }
      ],
      "name": "OwnershipTransferred",
      "type": "event"
    },
    {
      "constant": false,
      "inputs": [
        {
          "name": "_zombieId",
          "type": "uint256"
        },
        {
          "name": "_newName",
          "type": "string"
        }
      ],
      "name": "changeName",
      "outputs": [],
      "payable": false,
      "stateMutability": "nonpayable",
      "type": "function"
    },
    {
      "constant": false,
      "inputs": [
        {
          "name": "_zombieId",
          "type": "uint256"
        },
        {
          "name": "_newDna",
          "type": "uint256"
        }
      ],
      "name": "changeDna",
      "outputs": [],
      "payable": false,
      "stateMutability": "nonpayable",
      "type": "function"
    },
    {
      "constant": true,
      "inputs": [
        {
          "name": "_owner",
          "type": "address"
        }
      ],
      "name": "getZombiesByOwner",
      "outputs": [
        {
          "name": "",
          "type": "uint256[]"
        }
      ],
      "payable": false,
      "stateMutability": "view",
      "type": "function"
    }
  ],
  "bytecode": "0x6080604081905260106001908155662386f26fc1000060025562015180600355600455600f60055560008054600160a060020a0319163317808255600160a060020a0316917f8be0079c531659141344cd1fd0a4f28419497f9722a3daafe3b4186f6b6457e0908290a3610fad806100786000396000f3006080604052600436106100b95763ffffffff7c010000000000000000000000000000000000000000000000000000000060003504166317a7f4cc81146100be5780632052465e146100db5780634412e10414610198578063528b7b8f146102095780635f4623f11461023d5780635faf28801461025e578063715018a6146102795780637bff0a011461028e5780638da5cb5b146102e75780638f32d59b146102fc578063c39cbef114610325578063f2fde38b14610349575b600080fd5b3480156100ca57600080fd5b506100d960043560243561036a565b005b3480156100e757600080fd5b506100f360043561044b565b60405180806020018581526020018463ffffffff1663ffffffff1681526020018363ffffffff1663ffffffff168152602001828103825286818151815260200191508051906020019080838360005b8381101561015a578181015183820152602001610142565b50505050905090810190601f1680156101875780820380516001836020036101000a031916815260200191505b509550505050505060405180910390f35b3480156101a457600080fd5b506101b9600160a060020a036004351661051b565b60408051602080825283518183015283519192839290830191858101910280838360005b838110156101f55781810151838201526020016101dd565b505050509050019250505060405180910390f35b34801561021557600080fd5b506102216004356105d9565b60408051600160a060020a039092168252519081900360200190f35b34801561024957600080fd5b506100d9600160a060020a03600435166105f4565b34801561026a57600080fd5b506100d9600435602435610636565b34801561028557600080fd5b506100d96106bc565b34801561029a57600080fd5b506040805160206004803580820135601f81018490048402850184019095528484526100d99436949293602493928401919081908401838280828437509497506107269650505050505050565b3480156102f357600080fd5b50610221610759565b34801561030857600080fd5b50610311610769565b604080519115158252519081900360200190f35b34801561033157600080fd5b506100d960048035906024803590810191013561077a565b34801561035557600080fd5b506100d9600160a060020a0360043516610808565b600954604080517fe98b7f4d000000000000000000000000000000000000000000000000000000008152600481018490529051600092600160a060020a03169163e98b7f4d9160248083019261014092919082900301818787803b1580156103d157600080fd5b505af11580156103e5573d6000803e3d6000fd5b505050506040513d6101408110156103fc57600080fd5b50610120015160408051808201909152600581527f6b6974747900000000000000000000000000000000000000000000000000000060208201529091506104469084908390610827565b505050565b600680548290811061045957fe5b60009182526020918290206003919091020180546040805160026001841615610100026000190190931692909204601f8101859004850283018501909152808252919350918391908301828280156104f25780601f106104c7576101008083540402835291602001916104f2565b820191906000526020600020905b8154815290600101906020018083116104d557829003601f168201915b50505050600183015460029093015491929163ffffffff80821692506401000000009091041684565b6060806000806008600086600160a060020a0316600160a060020a0316815260200190815260200160002054604051908082528060200260200182016040528015610570578160200160208202803883390190505b50925060009150600090505b6006548110156105d057600081815260076020526040902054600160a060020a03868116911614156105c8578083838151811015156105b757fe5b602090810290910101526001909101905b60010161057c565b50909392505050565b600760205260009081526040902054600160a060020a031681565b6105fc610769565b151561060757600080fd5b6009805473ffffffffffffffffffffffffffffffffffffffff1916600160a060020a0392909216919091179055565b6014828160068281548110151561064957fe5b600091825260209091206002600390920201015463ffffffff16101561066e57600080fd5b600084815260076020526040902054600160a060020a0316331461069157600080fd5b826006858154811015156106a157fe5b90600052602060002090600302016001018190555050505050565b6106c4610769565b15156106cf57600080fd5b60008054604051600160a060020a03909116907f8be0079c531659141344cd1fd0a4f28419497f9722a3daafe3b4186f6b6457e0908390a36000805473ffffffffffffffffffffffffffffffffffffffff19169055565b336000908152600860205260408120541561074057600080fd5b61074982610ab9565b90506107558282610c20565b5050565b600054600160a060020a03165b90565b600054600160a060020a0316331490565b6002838160068281548110151561078d57fe5b600091825260209091206002600390920201015463ffffffff1610156107b257600080fd5b600085815260076020526040902054600160a060020a031633146107d557600080fd5b83836006878154811015156107e657fe5b600091825260209091206108009360039092020191610e7b565b505050505050565b610810610769565b151561081b57600080fd5b61082481610de5565b50565b6000838152600760205260408120548190600160a060020a031633146108ae57604080517f08c379a000000000000000000000000000000000000000000000000000000000815260206004820152601760248201527f5a6f6d626965206e6f74206f776e656420627920796f75000000000000000000604482015290519081900360640190fd5b60068054869081106108bc57fe5b906000526020600020906003020191506108d582610e62565b15156108e057600080fd5b600254848115156108ed57fe5b06935060028483600101540181151561090257fe5b04905060405160200180807f6b6974747900000000000000000000000000000000000000000000000000000081525060050190506040516020818303038152906040526040518082805190602001908083835b602083106109745780518252601f199092019160209182019101610955565b51815160209384036101000a60001901801990921691161790526040519190930181900381208851909550889450908301928392508401908083835b602083106109cf5780518252601f1990920191602091820191016109b0565b6001836020036101000a0380198251168184511680821785525050505050509050019150506040516020818303038152906040526040518082805190602001908083835b60208310610a325780518252601f199092019160209182019101610a13565b6001836020036101000a0380198251168184511680821785525050505050509050019150506040518091039020600019161415610a73576064810690036063015b610ab26040805190810160405280600681526020017f4e6f4e616d65000000000000000000000000000000000000000000000000000081525082610c20565b5050505050565b60008060008351915060045482118015610ad4575060055482105b1515610b4157604080517f08c379a000000000000000000000000000000000000000000000000000000000815260206004820152600f60248201527f4e616d6520626164206c656e6774680000000000000000000000000000000000604482015290519081900360640190fd5b836040516020018082805190602001908083835b60208310610b745780518252601f199092019160209182019101610b55565b6001836020036101000a0380198251168184511680821785525050505050509050019150506040516020818303038152906040526040518082805190602001908083835b60208310610bd75780518252601f199092019160209182019101610bb8565b6001836020036101000a038019825116818451168082178552505050505050905001915050604051809103902060019004905060025481811515610c1757fe5b06949350505050565b604080516080810182528381526020808201849052600192820183905260038054420163ffffffff1660608401526006805480860180835560009283528551805193979691959194929092027ff652222313e28459528d920b65115c16c04f3efc82aaedc97be59f3f377c0d3f0192610c9c9284920190610ef9565b506020828101516001808401919091556040808501516002909401805460609687015163ffffffff9081166401000000000267ffffffff00000000199190971663ffffffff1990921691909117169490941790935594909303600081815260078552828120805473ffffffffffffffffffffffffffffffffffffffff1916339081179091558152600885528281208054909601909555815181815291820187905281840183815288519383019390935287519095507f88f026aacbbecc90c18411df4b1185fd8d9be2470f1962f192bf84a27d0704b7948694899489949390926080850192870191908190849084905b83811015610da4578181015183820152602001610d8c565b50505050905090810190601f168015610dd15780820380516001836020036101000a031916815260200191505b5094505050505060405180910390a1505050565b600160a060020a0381161515610dfa57600080fd5b60008054604051600160a060020a03808516939216917f8be0079c531659141344cd1fd0a4f28419497f9722a3daafe3b4186f6b6457e091a36000805473ffffffffffffffffffffffffffffffffffffffff1916600160a060020a0392909216919091179055565b600201544264010000000090910463ffffffff16111590565b828054600181600116156101000203166002900490600052602060002090601f016020900481019282601f10610ebc5782800160ff19823516178555610ee9565b82800160010185558215610ee9579182015b82811115610ee9578235825591602001919060010190610ece565b50610ef5929150610f67565b5090565b828054600181600116156101000203166002900490600052602060002090601f016020900481019282601f10610f3a57805160ff1916838001178555610ee9565b82800160010185558215610ee9579182015b82811115610ee9578251825591602001919060010190610f4c565b61076691905b80821115610ef55760008155600101610f6d5600a165627a7a72305820dda6fd5c5b9a58110259962b6508a2a8f2f8960b09cf239a72b97f540d67ee960029",
  "source": "pragma solidity ^0.4.24;\r\n\r\nimport \"./zombiefeeding.sol\";\r\n\r\ncontract ZombieHelper is ZombieFeeding {\r\n\r\n    modifier aboveLevel(uint _level, uint _zombieId) {\r\n      require(zombies[_zombieId].level >= _level);\r\n      _;\r\n    }\r\n\r\n    function changeName(uint _zombieId, string _newName) external aboveLevel(2, _zombieId) {\r\n        require(msg.sender == zombieToOwner[_zombieId]);\r\n        zombies[_zombieId].name = _newName;\r\n    }\r\n\r\n    function changeDna(uint _zombieId, uint _newDna) external aboveLevel(20, _zombieId) {\r\n        require(msg.sender == zombieToOwner[_zombieId]);\r\n        zombies[_zombieId].dna = _newDna;\r\n    }\r\n\r\n    function getZombiesByOwner(address _owner) external view returns(uint[]) {\r\n        uint[] memory result = new uint[](ownerZombieCount[_owner]);\r\n        uint counter = 0;\r\n        for (uint i = 0; i < zombies.length; i++) {\r\n            if (zombieToOwner[i] == _owner) {\r\n                result[counter] = i;\r\n                counter++;\r\n            }\r\n        }   \r\n        return result;\r\n    }\r\n\r\n}\r\n",
  "sourcePath": "C:\\Users\\Eth Coding\\Documents\\Github\\CryptoZombiesT1\\Chapter 3\\contracts\\ZombieHelper.sol",
  "compiler": {
    "name": "solc",
    "version": "0.4.24+commit.e67f0147.Emscripten.clang"
  },
  "schemaVersion": "2.0.1",
  "updatedAt": "2018-11-12T04:05:14.593Z"
}