{
  "contractName": "ZombieHelper",
  "abi": [
    {
      "constant": false,
      "inputs": [
        {
          "name": "_zombieId",
          "type": "uint256"
        },
        {
          "name": "_kittyId",
          "type": "uint256"
        }
      ],
      "name": "feedOnKitty",
      "outputs": [],
      "payable": false,
      "stateMutability": "nonpayable",
      "type": "function"
    },
    {
      "constant": true,
      "inputs": [
        {
          "name": "",
          "type": "uint256"
        }
      ],
      "name": "zombies",
      "outputs": [
        {
          "name": "name",
          "type": "string"
        },
        {
          "name": "dna",
          "type": "uint256"
        },
        {
          "name": "level",
          "type": "uint32"
        },
        {
          "name": "readyTime",
          "type": "uint32"
        }
      ],
      "payable": false,
      "stateMutability": "view",
      "type": "function"
    },
    {
      "constant": true,
      "inputs": [
        {
          "name": "",
          "type": "uint256"
        }
      ],
      "name": "zombieToOwner",
      "outputs": [
        {
          "name": "",
          "type": "address"
        }
      ],
      "payable": false,
      "stateMutability": "view",
      "type": "function"
    },
    {
      "constant": false,
      "inputs": [
        {
          "name": "_address",
          "type": "address"
        }
      ],
      "name": "setKittyContractAddress",
      "outputs": [],
      "payable": false,
      "stateMutability": "nonpayable",
      "type": "function"
    },
    {
      "constant": false,
      "inputs": [],
      "name": "renounceOwnership",
      "outputs": [],
      "payable": false,
      "stateMutability": "nonpayable",
      "type": "function"
    },
    {
      "constant": false,
      "inputs": [
        {
          "name": "_name",
          "type": "string"
        }
      ],
      "name": "createRandomZombie",
      "outputs": [],
      "payable": false,
      "stateMutability": "nonpayable",
      "type": "function"
    },
    {
      "constant": true,
      "inputs": [],
      "name": "owner",
      "outputs": [
        {
          "name": "",
          "type": "address"
        }
      ],
      "payable": false,
      "stateMutability": "view",
      "type": "function"
    },
    {
      "constant": true,
      "inputs": [],
      "name": "isOwner",
      "outputs": [
        {
          "name": "",
          "type": "bool"
        }
      ],
      "payable": false,
      "stateMutability": "view",
      "type": "function"
    },
    {
      "constant": false,
      "inputs": [
        {
          "name": "newOwner",
          "type": "address"
        }
      ],
      "name": "transferOwnership",
      "outputs": [],
      "payable": false,
      "stateMutability": "nonpayable",
      "type": "function"
    },
    {
      "anonymous": false,
      "inputs": [
        {
          "indexed": false,
          "name": "zombieId",
          "type": "uint256"
        },
        {
          "indexed": false,
          "name": "name",
          "type": "string"
        },
        {
          "indexed": false,
          "name": "dna",
          "type": "uint256"
        }
      ],
      "name": "NewZombie",
      "type": "event"
    },
    {
      "anonymous": false,
      "inputs": [
        {
          "indexed": true,
          "name": "previousOwner",
          "type": "address"
        },
        {
          "indexed": true,
          "name": "newOwner",
          "type": "address"
        }
      ],
      "name": "OwnershipTransferred",
      "type": "event"
    },
    {
      "constant": false,
      "inputs": [
        {
          "name": "_zombieId",
          "type": "uint256"
        },
        {
          "name": "_newName",
          "type": "string"
        }
      ],
      "name": "changeName",
      "outputs": [],
      "payable": false,
      "stateMutability": "nonpayable",
      "type": "function"
    },
    {
      "constant": false,
      "inputs": [
        {
          "name": "_zombieId",
          "type": "uint256"
        },
        {
          "name": "_newDna",
          "type": "uint256"
        }
      ],
      "name": "changeDna",
      "outputs": [],
      "payable": false,
      "stateMutability": "nonpayable",
      "type": "function"
    },
    {
      "constant": true,
      "inputs": [
        {
          "name": "_owner",
          "type": "address"
        }
      ],
      "name": "getZombiesByOwner",
      "outputs": [
        {
          "name": "",
          "type": "uint256[]"
        }
      ],
      "payable": false,
      "stateMutability": "view",
      "type": "function"
    }
  ],
  "bytecode": "0x6080604081905260106001908155662386f26fc1000060025562015180600355600455600f60055560008054600160a060020a0319163317808255600160a060020a0316917f8be0079c531659141344cd1fd0a4f28419497f9722a3daafe3b4186f6b6457e0908290a36110d0806100786000396000f3006080604052600436106100b95763ffffffff7c010000000000000000000000000000000000000000000000000000000060003504166317a7f4cc81146100be5780632052465e146100db5780634412e10414610198578063528b7b8f146102095780635f4623f11461023d5780635faf28801461025e578063715018a6146102795780637bff0a011461028e5780638da5cb5b146102e75780638f32d59b146102fc578063c39cbef114610325578063f2fde38b14610349575b600080fd5b3480156100ca57600080fd5b506100d960043560243561036a565b005b3480156100e757600080fd5b506100f36004356103bb565b60405180806020018581526020018463ffffffff1663ffffffff1681526020018363ffffffff1663ffffffff168152602001828103825286818151815260200191508051906020019080838360005b8381101561015a578181015183820152602001610142565b50505050905090810190601f1680156101875780820380516001836020036101000a031916815260200191505b509550505050505060405180910390f35b3480156101a457600080fd5b506101b9600160a060020a036004351661048b565b60408051602080825283518183015283519192839290830191858101910280838360005b838110156101f55781810151838201526020016101dd565b505050509050019250505060405180910390f35b34801561021557600080fd5b50610221600435610549565b60408051600160a060020a039092168252519081900360200190f35b34801561024957600080fd5b506100d9600160a060020a0360043516610564565b34801561026a57600080fd5b506100d96004356024356105a6565b34801561028557600080fd5b506100d96106cc565b34801561029a57600080fd5b506040805160206004803580820135601f81018490048402850184019095528484526100d99436949293602493928401919081908401838280828437509497506107369650505050505050565b3480156102f357600080fd5b506102216107df565b34801561030857600080fd5b506103116107ef565b604080519115158252519081900360200190f35b34801561033157600080fd5b506100d9600480359060248035908101910135610800565b34801561035557600080fd5b506100d9600160a060020a036004351661092e565b60408051808201909152600581527f6b697474790000000000000000000000000000000000000000000000000000006020820152625f16e79060018301906103b5908590849061094d565b50505050565b60068054829081106103c957fe5b60009182526020918290206003919091020180546040805160026001841615610100026000190190931692909204601f8101859004850283018501909152808252919350918391908301828280156104625780601f1061043757610100808354040283529160200191610462565b820191906000526020600020905b81548152906001019060200180831161044557829003601f168201915b50505050600183015460029093015491929163ffffffff80821692506401000000009091041684565b6060806000806008600086600160a060020a0316600160a060020a03168152602001908152602001600020546040519080825280602002602001820160405280156104e0578160200160208202803883390190505b50925060009150600090505b60065481101561054057600081815260076020526040902054600160a060020a03868116911614156105385780838381518110151561052757fe5b602090810290910101526001909101905b6001016104ec565b50909392505050565b600760205260009081526040902054600160a060020a031681565b61056c6107ef565b151561057757600080fd5b6009805473ffffffffffffffffffffffffffffffffffffffff1916600160a060020a0392909216919091179055565b601482816006828154811015156105b957fe5b600091825260209091206002600390920201015463ffffffff16101561062e5760408051600080516020611085833981519152815260206004820152601c60248201527f5a6f6d626965206c6576656c206e6f74206869676820656e6f75676800000000604482015290519081900360640190fd5b600084815260076020526040902054600160a060020a031633146106a15760408051600080516020611085833981519152815260206004820152601760248201527f5a6f6d626965206e6f74206f776e656420627920796f75000000000000000000604482015290519081900360640190fd5b826006858154811015156106b157fe5b90600052602060002090600302016001018190555050505050565b6106d46107ef565b15156106df57600080fd5b60008054604051600160a060020a03909116907f8be0079c531659141344cd1fd0a4f28419497f9722a3daafe3b4186f6b6457e0908390a36000805473ffffffffffffffffffffffffffffffffffffffff19169055565b33600090815260086020526040812054156107c65760408051600080516020611085833981519152815260206004820152602360248201527f4f6e6c7920776f726b73207768656e20796f752068617665206e6f205a6f6d6260448201527f6965730000000000000000000000000000000000000000000000000000000000606482015290519081900360840190fd5b6107cf82610bbd565b90506107db8282610d12565b5050565b600054600160a060020a03165b90565b600054600160a060020a0316331490565b6002838160068281548110151561081357fe5b600091825260209091206002600390920201015463ffffffff1610156108885760408051600080516020611085833981519152815260206004820152601c60248201527f5a6f6d626965206c6576656c206e6f74206869676820656e6f75676800000000604482015290519081900360640190fd5b600085815260076020526040902054600160a060020a031633146108fb5760408051600080516020611085833981519152815260206004820152601760248201527f5a6f6d626965206e6f74206f776e656420627920796f75000000000000000000604482015290519081900360640190fd5b838360068781548110151561090c57fe5b600091825260209091206109269360039092020191610f7e565b505050505050565b6109366107ef565b151561094157600080fd5b61094a81610ed7565b50565b60008381526007602052604081205481908190600160a060020a031633146109c45760408051600080516020611085833981519152815260206004820152601760248201527f5a6f6d626965206e6f74206f776e656420627920796f75000000000000000000604482015290519081900360640190fd5b60068054879081106109d257fe5b90600052602060002090600302019250600254858115156109ef57fe5b069150600282846001015401811515610a0457fe5b04905060405160200180807f6b6974747900000000000000000000000000000000000000000000000000000081525060050190506040516020818303038152906040526040518082805190602001908083835b60208310610a765780518252601f199092019160209182019101610a57565b51815160209384036101000a60001901801990921691161790526040519190930181900381208951909550899450908301928392508401908083835b60208310610ad15780518252601f199092019160209182019101610ab2565b6001836020036101000a0380198251168184511680821785525050505050509050019150506040516020818303038152906040526040518082805190602001908083835b60208310610b345780518252601f199092019160209182019101610b15565b6001836020036101000a0380198251168184511680821785525050505050509050019150506040518091039020600019161415610b75576064810690036063015b610bb46040805190810160405280600681526020017f4e6f4e616d65000000000000000000000000000000000000000000000000000081525082610d12565b61092683610f54565b60008060008351915060045482118015610bd8575060055482105b1515610c335760408051600080516020611085833981519152815260206004820152600f60248201527f4e616d6520626164206c656e6774680000000000000000000000000000000000604482015290519081900360640190fd5b836040516020018082805190602001908083835b60208310610c665780518252601f199092019160209182019101610c47565b6001836020036101000a0380198251168184511680821785525050505050509050019150506040516020818303038152906040526040518082805190602001908083835b60208310610cc95780518252601f199092019160209182019101610caa565b6001836020036101000a038019825116818451168082178552505050505050905001915050604051809103902060019004905060025481811515610d0957fe5b06949350505050565b604080516080810182528381526020808201849052600192820183905260038054420163ffffffff1660608401526006805480860180835560009283528551805193979691959194929092027ff652222313e28459528d920b65115c16c04f3efc82aaedc97be59f3f377c0d3f0192610d8e9284920190610ffc565b506020828101516001808401919091556040808501516002909401805460609687015163ffffffff9081166401000000000267ffffffff00000000199190971663ffffffff1990921691909117169490941790935594909303600081815260078552828120805473ffffffffffffffffffffffffffffffffffffffff1916339081179091558152600885528281208054909601909555815181815291820187905281840183815288519383019390935287519095507f88f026aacbbecc90c18411df4b1185fd8d9be2470f1962f192bf84a27d0704b7948694899489949390926080850192870191908190849084905b83811015610e96578181015183820152602001610e7e565b50505050905090810190601f168015610ec35780820380516001836020036101000a031916815260200191505b5094505050505060405180910390a1505050565b600160a060020a0381161515610eec57600080fd5b60008054604051600160a060020a03808516939216917f8be0079c531659141344cd1fd0a4f28419497f9722a3daafe3b4186f6b6457e091a36000805473ffffffffffffffffffffffffffffffffffffffff1916600160a060020a0392909216919091179055565b60035442018160020160046101000a81548163ffffffff021916908363ffffffff16021790555050565b828054600181600116156101000203166002900490600052602060002090601f016020900481019282601f10610fbf5782800160ff19823516178555610fec565b82800160010185558215610fec579182015b82811115610fec578235825591602001919060010190610fd1565b50610ff892915061106a565b5090565b828054600181600116156101000203166002900490600052602060002090601f016020900481019282601f1061103d57805160ff1916838001178555610fec565b82800160010185558215610fec579182015b82811115610fec57825182559160200191906001019061104f565b6107ec91905b80821115610ff85760008155600101611070560008c379a000000000000000000000000000000000000000000000000000000000a165627a7a723058203ce9d5398ac993ab948541b3e9fc371a0e8682d4cd89a9db3d92fbfc9f564eda0029",
  "source": "pragma solidity >=0.4.0 <0.6.0;\r\n\r\n/// @title CryptoZombies Chapter 3\r\n/// @author H4XF13LD MORRIS 💯💯😎💯💯 (documentation by Rex Hygate)\r\n// @Github https://github.com/SecurEth/CryptoZombiesT1/Chapter1\r\n// @SDD \"./doc./System Description Document.md\"\r\n// @ARCH ./doc/Crpto...\r\n\r\nimport \"./zombiefeeding.sol\";\r\n\r\ncontract ZombieHelper is ZombieFeeding {\r\n\r\n    modifier aboveLevel(uint _level, uint _zombieId) {\r\n        require(zombies[_zombieId].level >= _level, \"Zombie level not high enough\");\r\n        _;\r\n    }\r\n// req ZH_5 Changes the name of a zombie\r\n// req ZH_6 Name change can only be done by the zombie's owner\r\n    function changeName(uint _zombieId, string _newName) external aboveLevel(2, _zombieId) {\r\n        require(msg.sender == zombieToOwner[_zombieId], \"Zombie not owned by you\");\r\n        // Check length of name\r\n        zombies[_zombieId].name = _newName;\r\n    }\r\n// ZH_7 Changes the dna of a zombie if it is above level 20\r\n// ZH_8 Only the owner of a zombie can change its dna\r\n    function changeDna(uint _zombieId, uint _newDna) external aboveLevel(20, _zombieId) {\r\n        require(msg.sender == zombieToOwner[_zombieId], \"Zombie not owned by you\");\r\n        zombies[_zombieId].dna = _newDna;\r\n    }\r\n\r\n// ZH_9 Create and return an array of the number of zombies by owner for use in other function\r\n    function getZombiesByOwner(address _owner) external view returns(uint[] memory ) {\r\n        uint[] memory result = new uint[](ownerZombieCount[_owner]);\r\n        uint counter = 0;\r\n        for (uint i = 0; i < zombies.length; i++) {\r\n            if (zombieToOwner[i] == _owner) {\r\n                result[counter] = i;\r\n                counter++;\r\n            }\r\n        }   \r\n        return result;\r\n    }\r\n}\r\n",
  "sourcePath": "C:\\Users\\Eth Coding\\Documents\\Github\\CryptoZombiesT2\\Lesson3\\contracts\\ZombieHelper.sol",
  "compiler": {
    "name": "solc",
    "version": "0.4.24+commit.e67f0147.Emscripten.clang"
  },
  "schemaVersion": "2.0.1",
  "updatedAt": "2018-12-31T18:48:07.658Z"
}