{
  "contractName": "ZombieHelper",
  "abi": [
    {
      "constant": false,
      "inputs": [
        {
          "name": "_zombieId",
          "type": "uint256"
        },
        {
          "name": "_kittyId",
          "type": "uint256"
        }
      ],
      "name": "feedOnKitty",
      "outputs": [],
      "payable": false,
      "stateMutability": "nonpayable",
      "type": "function"
    },
    {
      "constant": true,
      "inputs": [
        {
          "name": "",
          "type": "uint256"
        }
      ],
      "name": "zombies",
      "outputs": [
        {
          "name": "name",
          "type": "string"
        },
        {
          "name": "dna",
          "type": "uint256"
        },
        {
          "name": "level",
          "type": "uint32"
        },
        {
          "name": "readyTime",
          "type": "uint32"
        }
      ],
      "payable": false,
      "stateMutability": "view",
      "type": "function"
    },
    {
      "constant": true,
      "inputs": [
        {
          "name": "",
          "type": "uint256"
        }
      ],
      "name": "zombieToOwner",
      "outputs": [
        {
          "name": "",
          "type": "address"
        }
      ],
      "payable": false,
      "stateMutability": "view",
      "type": "function"
    },
    {
      "constant": false,
      "inputs": [
        {
          "name": "_address",
          "type": "address"
        }
      ],
      "name": "setKittyContractAddress",
      "outputs": [],
      "payable": false,
      "stateMutability": "nonpayable",
      "type": "function"
    },
    {
      "constant": false,
      "inputs": [],
      "name": "renounceOwnership",
      "outputs": [],
      "payable": false,
      "stateMutability": "nonpayable",
      "type": "function"
    },
    {
      "constant": false,
      "inputs": [
        {
          "name": "_name",
          "type": "string"
        }
      ],
      "name": "createRandomZombie",
      "outputs": [],
      "payable": false,
      "stateMutability": "nonpayable",
      "type": "function"
    },
    {
      "constant": true,
      "inputs": [
        {
          "name": "",
          "type": "uint256"
        }
      ],
      "name": "kittieToOwner",
      "outputs": [
        {
          "name": "",
          "type": "address"
        }
      ],
      "payable": false,
      "stateMutability": "view",
      "type": "function"
    },
    {
      "constant": true,
      "inputs": [
        {
          "name": "",
          "type": "uint256"
        }
      ],
      "name": "kitties",
      "outputs": [
        {
          "name": "isGestating",
          "type": "bool"
        },
        {
          "name": "isReady",
          "type": "bool"
        },
        {
          "name": "cooldownIndex",
          "type": "uint256"
        },
        {
          "name": "nextActionAt",
          "type": "uint256"
        },
        {
          "name": "siringWithId",
          "type": "uint256"
        },
        {
          "name": "birthTime",
          "type": "uint256"
        },
        {
          "name": "matronId",
          "type": "uint256"
        },
        {
          "name": "sireId",
          "type": "uint256"
        },
        {
          "name": "generation",
          "type": "uint256"
        },
        {
          "name": "genes",
          "type": "uint256"
        }
      ],
      "payable": false,
      "stateMutability": "view",
      "type": "function"
    },
    {
      "constant": true,
      "inputs": [],
      "name": "owner",
      "outputs": [
        {
          "name": "",
          "type": "address"
        }
      ],
      "payable": false,
      "stateMutability": "view",
      "type": "function"
    },
    {
      "constant": true,
      "inputs": [],
      "name": "isOwner",
      "outputs": [
        {
          "name": "",
          "type": "bool"
        }
      ],
      "payable": false,
      "stateMutability": "view",
      "type": "function"
    },
    {
      "constant": false,
      "inputs": [],
      "name": "createKittie",
      "outputs": [],
      "payable": false,
      "stateMutability": "nonpayable",
      "type": "function"
    },
    {
      "constant": false,
      "inputs": [
        {
          "name": "newOwner",
          "type": "address"
        }
      ],
      "name": "transferOwnership",
      "outputs": [],
      "payable": false,
      "stateMutability": "nonpayable",
      "type": "function"
    },
    {
      "anonymous": false,
      "inputs": [
        {
          "indexed": false,
          "name": "zombieId",
          "type": "uint256"
        },
        {
          "indexed": false,
          "name": "name",
          "type": "string"
        },
        {
          "indexed": false,
          "name": "dna",
          "type": "uint256"
        },
        {
          "indexed": false,
          "name": "zombieToOwner",
          "type": "address"
        },
        {
          "indexed": false,
          "name": "ownerZombieCount",
          "type": "uint256"
        }
      ],
      "name": "NewZombie",
      "type": "event"
    },
    {
      "anonymous": false,
      "inputs": [
        {
          "indexed": false,
          "name": "kittieToOwner",
          "type": "address"
        }
      ],
      "name": "KittieAddr",
      "type": "event"
    },
    {
      "anonymous": false,
      "inputs": [
        {
          "indexed": true,
          "name": "previousOwner",
          "type": "address"
        },
        {
          "indexed": true,
          "name": "newOwner",
          "type": "address"
        }
      ],
      "name": "OwnershipTransferred",
      "type": "event"
    },
    {
      "constant": false,
      "inputs": [
        {
          "name": "_zombieId",
          "type": "uint256"
        },
        {
          "name": "_newName",
          "type": "string"
        }
      ],
      "name": "changeName",
      "outputs": [],
      "payable": false,
      "stateMutability": "nonpayable",
      "type": "function"
    },
    {
      "constant": false,
      "inputs": [
        {
          "name": "_zombieId",
          "type": "uint256"
        },
        {
          "name": "_newDna",
          "type": "uint256"
        }
      ],
      "name": "changeDna",
      "outputs": [],
      "payable": false,
      "stateMutability": "nonpayable",
      "type": "function"
    },
    {
      "constant": true,
      "inputs": [
        {
          "name": "_owner",
          "type": "address"
        }
      ],
      "name": "getZombiesByOwner",
      "outputs": [
        {
          "name": "",
          "type": "uint256[]"
        }
      ],
      "payable": false,
      "stateMutability": "view",
      "type": "function"
    }
  ],
  "bytecode": "0x6080604081905260106003908155662386f26fc100006004556005556001600655600f60075560008054600160a060020a0319163317808255600160a060020a0316917f8be0079c531659141344cd1fd0a4f28419497f9722a3daafe3b4186f6b6457e0908290a36116c4806100766000396000f3fe6080604052600436106100da5763ffffffff7c010000000000000000000000000000000000000000000000000000000060003504166317a7f4cc81146100df5780632052465e146101115780634412e104146101e0578063528b7b8f146102635780635f4623f1146102a95780635faf2880146102dc578063715018a61461030c5780637bff0a01146103215780638557b2c8146103d45780638cc51eda146103fe5780638da5cb5b1461047a5780638f32d59b1461048f57806399baabea146104b8578063c39cbef1146104cd578063f2fde38b14610551575b600080fd5b3480156100eb57600080fd5b5061010f6004803603604081101561010257600080fd5b5080359060200135610584565b005b34801561011d57600080fd5b5061013b6004803603602081101561013457600080fd5b50356105d5565b60405180806020018581526020018463ffffffff1663ffffffff1681526020018363ffffffff1663ffffffff168152602001828103825286818151815260200191508051906020019080838360005b838110156101a257818101518382015260200161018a565b50505050905090810190601f1680156101cf5780820380516001836020036101000a031916815260200191505b509550505050505060405180910390f35b3480156101ec57600080fd5b506102136004803603602081101561020357600080fd5b5035600160a060020a03166106a5565b60408051602080825283518183015283519192839290830191858101910280838360005b8381101561024f578181015183820152602001610237565b505050509050019250505060405180910390f35b34801561026f57600080fd5b5061028d6004803603602081101561028657600080fd5b503561075b565b60408051600160a060020a039092168252519081900360200190f35b3480156102b557600080fd5b5061010f600480360360208110156102cc57600080fd5b5035600160a060020a0316610776565b3480156102e857600080fd5b5061010f600480360360408110156102ff57600080fd5b5080359060200135610808565b34801561031857600080fd5b5061010f61092e565b34801561032d57600080fd5b5061010f6004803603602081101561034457600080fd5b81019060208101813564010000000081111561035f57600080fd5b82018360208201111561037157600080fd5b8035906020019184600183028401116401000000008311171561039357600080fd5b91908080601f0160208091040260200160405190810160405280939291908181526020018383808284376000920191909152509295506109e8945050505050565b3480156103e057600080fd5b5061028d600480360360208110156103f757600080fd5b5035610a93565b34801561040a57600080fd5b506104286004803603602081101561042157600080fd5b5035610aae565b604080519a15158b5298151560208b0152898901979097526060890195909552608088019390935260a087019190915260c086015260e085015261010084015261012083015251908190036101400190f35b34801561048657600080fd5b5061028d610b18565b34801561049b57600080fd5b506104a4610b28565b604080519115158252519081900360200190f35b3480156104c457600080fd5b5061010f610b39565b3480156104d957600080fd5b5061010f600480360360408110156104f057600080fd5b8135919081019060408101602082013564010000000081111561051257600080fd5b82018360208201111561052457600080fd5b8035906020019184600183028401116401000000008311171561054657600080fd5b509092509050610d8f565b34801561055d57600080fd5b5061010f6004803603602081101561057457600080fd5b5035600160a060020a0316610ebd565b60408051808201909152600581527f6b697474790000000000000000000000000000000000000000000000000000006020820152625f16e79060018301906105cf9085908490610f2c565b50505050565b60088054829081106105e357fe5b60009182526020918290206003919091020180546040805160026001841615610100026000190190931692909204601f81018590048502830185019091528082529193509183919083018282801561067c5780601f106106515761010080835404028352916020019161067c565b820191906000526020600020905b81548152906001019060200180831161065f57829003601f168201915b50505050600183015460029093015491929163ffffffff80821692506401000000009091041684565b606080600a600084600160a060020a0316600160a060020a03168152602001908152602001600020546040519080825280602002602001820160405280156106f7578160200160208202803883390190505b5090506000805b60085481101561075257600081815260096020526040902054600160a060020a038681169116141561074a5780838381518110151561073957fe5b602090810290910101526001909101905b6001016106fe565b50909392505050565b600960205260009081526040902054600160a060020a031681565b61077e610b28565b15156107d95760408051600080516020611679833981519152815260206004820152601b60248201527f43616c6c6564206279206f74686572207468616e206f776e65722e0000000000604482015290519081900360640190fd5b600b805473ffffffffffffffffffffffffffffffffffffffff1916600160a060020a0392909216919091179055565b6014828160088281548110151561081b57fe5b600091825260209091206002600390920201015463ffffffff1610156108905760408051600080516020611679833981519152815260206004820152601c60248201527f5a6f6d626965206c6576656c206e6f74206869676820656e6f75676800000000604482015290519081900360640190fd5b600084815260096020526040902054600160a060020a031633146109035760408051600080516020611679833981519152815260206004820152601760248201527f5a6f6d626965206e6f74206f776e656420627920796f75000000000000000000604482015290519081900360640190fd5b8260088581548110151561091357fe5b90600052602060002090600302016001018190555050505050565b610936610b28565b15156109915760408051600080516020611679833981519152815260206004820152601b60248201527f43616c6c6564206279206f74686572207468616e206f776e65722e0000000000604482015290519081900360640190fd5b60008054604051600160a060020a03909116907f8be0079c531659141344cd1fd0a4f28419497f9722a3daafe3b4186f6b6457e0908390a36000805473ffffffffffffffffffffffffffffffffffffffff19169055565b336000908152600a602052604090205415610a785760408051600080516020611679833981519152815260206004820152602360248201527f4f6e6c7920776f726b73207768656e20796f752068617665206e6f205a6f6d6260448201527f6965730000000000000000000000000000000000000000000000000000000000606482015290519081900360840190fd5b6000610a838261115a565b9050610a8f8282611259565b5050565b600260205260009081526040902054600160a060020a031681565b6001805482908110610abc57fe5b600091825260209091206009909102018054600182015460028301546003840154600485015460058601546006870154600788015460089098015460ff8089169a5061010090980490971697959694959394929391929091908a565b600054600160a060020a03165b90565b600054600160a060020a0316331490565b6040805161014081018252600180825260208083018281526005848601908152600760608601908152600960808701818152600b60a08901908152600d60c08a01908152600f60e08b019081526011610100808d0191825260156101208e019081528c54808e018e5560009d8e529d51978e027fb10e2d527612073b26eecdfd717e6a320cf44b4afac2b0732d9fcbe2b7fa0cf6810180549c51151590930261ff001999151560ff199d909d169c909c17989098169a909a17905596517fb10e2d527612073b26eecdfd717e6a320cf44b4afac2b0732d9fcbe2b7fa0cf786015594517fb10e2d527612073b26eecdfd717e6a320cf44b4afac2b0732d9fcbe2b7fa0cf885015591517fb10e2d527612073b26eecdfd717e6a320cf44b4afac2b0732d9fcbe2b7fa0cf9840155517fb10e2d527612073b26eecdfd717e6a320cf44b4afac2b0732d9fcbe2b7fa0cfa830155517fb10e2d527612073b26eecdfd717e6a320cf44b4afac2b0732d9fcbe2b7fa0cfb82015590517fb10e2d527612073b26eecdfd717e6a320cf44b4afac2b0732d9fcbe2b7fa0cfc82015590517fb10e2d527612073b26eecdfd717e6a320cf44b4afac2b0732d9fcbe2b7fa0cfd82015590517fb10e2d527612073b26eecdfd717e6a320cf44b4afac2b0732d9fcbe2b7fa0cfe909101558282526002815290839020805473ffffffffffffffffffffffffffffffffffffffff19163317908190558351600160a060020a03919091168152925191927fe3e4af54b932ca741acf90e7d537fe26272376a7085502edf8c731218effe18f929081900390910190a150565b60028381600882815481101515610da257fe5b600091825260209091206002600390920201015463ffffffff161015610e175760408051600080516020611679833981519152815260206004820152601c60248201527f5a6f6d626965206c6576656c206e6f74206869676820656e6f75676800000000604482015290519081900360640190fd5b600085815260096020526040902054600160a060020a03163314610e8a5760408051600080516020611679833981519152815260206004820152601760248201527f5a6f6d626965206e6f74206f776e656420627920796f75000000000000000000604482015290519081900360640190fd5b8383600887815481101515610e9b57fe5b60009182526020909120610eb59360039092020191611572565b505050505050565b610ec5610b28565b1515610f205760408051600080516020611679833981519152815260206004820152601b60248201527f43616c6c6564206279206f74686572207468616e206f776e65722e0000000000604482015290519081900360640190fd5b610f298161143c565b50565b600083815260096020526040902054600160a060020a03163314610f9f5760408051600080516020611679833981519152815260206004820152601760248201527f5a6f6d626965206e6f74206f776e656420627920796f75000000000000000000604482015290519081900360640190fd5b6000600884815481101515610fb057fe5b90600052602060002090600302019050610fc98161152f565b15156110245760408051600080516020611679833981519152815260206004820152601460248201527f5a6f6d626965206d757374206265207265616479000000000000000000000000604482015290519081900360640190fd5b60006004548481151561103357fe5b069050600060028284600101540181151561104a57fe5b04905060405160200180807f6b69747479000000000000000000000000000000000000000000000000000000815250600501905060405160208183030381529060405280519060200120846040516020018082805190602001908083835b602083106110c75780518252601f1990920191602091820191016110a8565b6001836020036101000a038019825116818451168082178552505050505050905001915050604051602081830303815290604052805190602001201415611112576064810690036063015b6111516040805190810160405280600681526020017f4e6f4e616d65000000000000000000000000000000000000000000000000000081525082611259565b610eb583611548565b80516006546000919081118015611172575060075481105b15156111cd5760408051600080516020611679833981519152815260206004820152600f60248201527f4e616d6520626164206c656e6774680000000000000000000000000000000000604482015290519081900360640190fd5b6000836040516020018082805190602001908083835b602083106112025780518252601f1990920191602091820191016111e3565b6001836020036101000a038019825116818451168082178552505050505050905001915050604051602081830303815290604052805190602001206001900490506004548181151561125057fe5b06949350505050565b6040805160808101825283815260208082018490526001928201839052600554420163ffffffff166060830152600880548085018083556000928352845180519396959194919360039093027ff3f7a9fe364faab93b216da50a3214154f22a0a2b415b23a84c8169e8b636ee301926112d592849201906115f0565b506020828101516001838101919091556040808501516002909401805460609687015163ffffffff9081166401000000000267ffffffff00000000199190971663ffffffff1990921691909117169490941790935594909303600081815260098552828120805473ffffffffffffffffffffffffffffffffffffffff19163390811782558252600a8652838220805490970196879055548351838152938401899052600160a060020a03169383018490526080830186905260a08386018181528a519185019190915289519297507f9dfb8159c8f41d296587ad1c564820650440f2cb3a7f0c2b6443058dc6af4f089688968b968b969095929490939260c08501928901918190849084905b838110156113f95781810151838201526020016113e1565b50505050905090810190601f1680156114265780820380516001836020036101000a031916815260200191505b50965050505050505060405180910390a1505050565b600160a060020a03811615156114c75760408051600080516020611679833981519152815260206004820152602360248201527f5472616e73666572206164647265737320666f72206e65774f776e657220697360448201527f20302e0000000000000000000000000000000000000000000000000000000000606482015290519081900360840190fd5b60008054604051600160a060020a03808516939216917f8be0079c531659141344cd1fd0a4f28419497f9722a3daafe3b4186f6b6457e091a36000805473ffffffffffffffffffffffffffffffffffffffff1916600160a060020a0392909216919091179055565b600201544264010000000090910463ffffffff16111590565b60055442018160020160046101000a81548163ffffffff021916908363ffffffff16021790555050565b828054600181600116156101000203166002900490600052602060002090601f016020900481019282601f106115b35782800160ff198235161785556115e0565b828001600101855582156115e0579182015b828111156115e05782358255916020019190600101906115c5565b506115ec92915061165e565b5090565b828054600181600116156101000203166002900490600052602060002090601f016020900481019282601f1061163157805160ff19168380011785556115e0565b828001600101855582156115e0579182015b828111156115e0578251825591602001919060010190611643565b610b2591905b808211156115ec576000815560010161166456fe08c379a000000000000000000000000000000000000000000000000000000000a165627a7a72305820cdadda7cc8317813cb9fc4fa08b2234401ec95c97c4e9219fed74794fcbd21f70029",
  "source": "pragma solidity >=0.4.0 <0.6.0;\r\n\r\n/// @title CryptoZombies Lesson 3\r\n/// @author H4XF13LD MORRIS 💯💯😎💯💯 (documentation by Rex Hygate)\r\n// @Github https://github.com/SecurEth/CryptoZombiesT2/Lesson3\r\n// @SDD \"./doc./System Description Document.md\"\r\n// @ARCH ./doc/architecure.md\r\n\r\nimport \"./zombiefeeding.sol\";\r\n\r\ncontract ZombieHelper is ZombieFeeding {\r\n\r\n    modifier aboveLevel(uint _level, uint _zombieId) {\r\n        require(zombies[_zombieId].level >= _level, \"Zombie level not high enough\");\r\n        _;\r\n    }\r\n    // req ZH_1 Changes the name of a zombie\r\n    // req ZH_2 Name change can only be done by the zombie's owner\r\n    function changeName(uint _zombieId, string calldata _newName) external aboveLevel(2, _zombieId) {\r\n        require(msg.sender == zombieToOwner[_zombieId], \"Zombie not owned by you\");\r\n        // Check length of name\r\n        zombies[_zombieId].name = _newName;\r\n    }\r\n    \r\n    // ZH_3 Changes the dna of a zombie if it is above level 20\r\n    // ZH_4 Only the owner of a zombie can change its dna\r\n    function changeDna(uint _zombieId, uint _newDna) external aboveLevel(20, _zombieId) {\r\n        require(msg.sender == zombieToOwner[_zombieId], \"Zombie not owned by you\");\r\n        zombies[_zombieId].dna = _newDna;\r\n    }\r\n\r\n    // ZH_5 Create and return an array of the number of zombies by owner for use in other function\r\n    function getZombiesByOwner(address _owner) external view returns(uint[] memory ) {\r\n        uint[] memory result = new uint[](ownerZombieCount[_owner]);\r\n        uint counter = 0;\r\n        for (uint i = 0; i < zombies.length; i++) {\r\n            if (zombieToOwner[i] == _owner) {\r\n                result[counter] = i;\r\n                counter++;\r\n            }\r\n        }   \r\n        return result;\r\n    }\r\n\r\n}",
  "sourcePath": "C:/Users/Eth Coding/Documents/Github/CryptoZombiesT2/Lesson3/contracts/ZombieHelper.sol",
  "compiler": {
    "name": "solc",
    "version": "0.5.0+commit.1d4f565a.Emscripten.clang"
  },
  "schemaVersion": "3.0.6",
  "updatedAt": "2019-04-20T22:57:49.993Z",
  "devdoc": {
    "methods": {
      "isOwner()": {
        "return": "true if `msg.sender` is the owner of the contract.\r"
      },
      "owner()": {
        "return": "the address of the owner.\r"
      },
      "renounceOwnership()": {
        "details": "Allows the current owner to relinquish control of the contract.\r"
      },
      "transferOwnership(address)": {
        "details": "Allows the current owner to transfer control of the contract to a newOwner.\r",
        "params": {
          "newOwner": "The address to transfer ownership to.\r"
        }
      }
    }
  },
  "userdoc": {
    "methods": {
      "renounceOwnership()": {
        "notice": "Renouncing to ownership will leave the contract without an owner.\r It will not be possible to call the functions with the `onlyOwner`\r modifier anymore.\r"
      }
    }
  }
}